{"contracts/NFT.sol":{"NFT":{"abi":[{"inputs":[],"stateMutability":"nonpayable","type":"constructor"},{"anonymous":false,"inputs":[{"indexed":true,"internalType":"address","name":"owner","type":"address"},{"indexed":true,"internalType":"address","name":"approved","type":"address"},{"indexed":true,"internalType":"uint256","name":"tokenId","type":"uint256"}],"name":"Approval","type":"event"},{"anonymous":false,"inputs":[{"indexed":true,"internalType":"address","name":"owner","type":"address"},{"indexed":true,"internalType":"address","name":"operator","type":"address"},{"indexed":false,"internalType":"bool","name":"approved","type":"bool"}],"name":"ApprovalForAll","type":"event"},{"anonymous":false,"inputs":[{"indexed":true,"internalType":"address","name":"from","type":"address"},{"indexed":true,"internalType":"address","name":"to","type":"address"},{"indexed":true,"internalType":"uint256","name":"tokenId","type":"uint256"}],"name":"Transfer","type":"event"},{"inputs":[{"internalType":"address","name":"to","type":"address"},{"internalType":"uint256","name":"tokenId","type":"uint256"}],"name":"approve","outputs":[],"stateMutability":"nonpayable","type":"function"},{"inputs":[{"internalType":"address","name":"owner","type":"address"}],"name":"balanceOf","outputs":[{"internalType":"uint256","name":"","type":"uint256"}],"stateMutability":"view","type":"function"},{"inputs":[{"internalType":"uint256","name":"tokenId","type":"uint256"}],"name":"getApproved","outputs":[{"internalType":"address","name":"","type":"address"}],"stateMutability":"view","type":"function"},{"inputs":[{"internalType":"address","name":"owner","type":"address"},{"internalType":"address","name":"operator","type":"address"}],"name":"isApprovedForAll","outputs":[{"internalType":"bool","name":"","type":"bool"}],"stateMutability":"view","type":"function"},{"inputs":[{"internalType":"address","name":"recipient","type":"address"}],"name":"mintTo","outputs":[{"internalType":"uint256","name":"","type":"uint256"}],"stateMutability":"nonpayable","type":"function"},{"inputs":[],"name":"name","outputs":[{"internalType":"string","name":"","type":"string"}],"stateMutability":"view","type":"function"},{"inputs":[{"internalType":"uint256","name":"tokenId","type":"uint256"}],"name":"ownerOf","outputs":[{"internalType":"address","name":"","type":"address"}],"stateMutability":"view","type":"function"},{"inputs":[{"internalType":"address","name":"from","type":"address"},{"internalType":"address","name":"to","type":"address"},{"internalType":"uint256","name":"tokenId","type":"uint256"}],"name":"safeTransferFrom","outputs":[],"stateMutability":"nonpayable","type":"function"},{"inputs":[{"internalType":"address","name":"from","type":"address"},{"internalType":"address","name":"to","type":"address"},{"internalType":"uint256","name":"tokenId","type":"uint256"},{"internalType":"bytes","name":"data","type":"bytes"}],"name":"safeTransferFrom","outputs":[],"stateMutability":"nonpayable","type":"function"},{"inputs":[{"internalType":"address","name":"operator","type":"address"},{"internalType":"bool","name":"approved","type":"bool"}],"name":"setApprovalForAll","outputs":[],"stateMutability":"nonpayable","type":"function"},{"inputs":[{"internalType":"bytes4","name":"interfaceId","type":"bytes4"}],"name":"supportsInterface","outputs":[{"internalType":"bool","name":"","type":"bool"}],"stateMutability":"view","type":"function"},{"inputs":[],"name":"symbol","outputs":[{"internalType":"string","name":"","type":"string"}],"stateMutability":"view","type":"function"},{"inputs":[{"internalType":"uint256","name":"tokenId","type":"uint256"}],"name":"tokenURI","outputs":[{"internalType":"string","name":"","type":"string"}],"stateMutability":"view","type":"function"},{"inputs":[{"internalType":"address","name":"from","type":"address"},{"internalType":"address","name":"to","type":"address"},{"internalType":"uint256","name":"tokenId","type":"uint256"}],"name":"transferFrom","outputs":[],"stateMutability":"nonpayable","type":"function"}],"evm":{"bytecode":{"linkReferences":{},"object":"6080346200030f576001600160401b039060409080820183811182821017620002f957825260088152602092674461707044656d6f60c01b84830152825183810181811083821117620002f9578452600781526611185c1c13919560ca1b85820152825190828211620002f95760008054926001958685811c95168015620002ee575b89861014620002da578190601f9586811162000287575b5089908683116001146200022357849262000217575b5050600019600383901b1c191690861b1781555b8151938411620002035784548581811c91168015620001f8575b88821014620001e4578381116200019c575b508692841160011462000136578394959650926200012a575b5050600019600383901b1c191690821b1790555b5161102a9081620003158239f35b01519050388062000108565b9190601f1984169685845280842093905b8882106200018457505083859697106200016a575b505050811b0190556200011c565b015160001960f88460031b161c191690553880806200015c565b80878596829496860151815501950193019062000147565b8582528782208480870160051c8201928a8810620001da575b0160051c019086905b828110620001ce575050620000ef565b838155018690620001be565b92508192620001b5565b634e487b7160e01b82526022600452602482fd5b90607f1690620000dd565b634e487b7160e01b81526041600452602490fd5b015190503880620000af565b8480528a85208994509190601f198416865b8d82821062000270575050841162000256575b505050811b018155620000c3565b015160001960f88460031b161c1916905538808062000248565b8385015186558c9790950194938401930162000235565b9091508380528984208680850160051c8201928c8610620002d0575b918a91869594930160051c01915b828110620002c157505062000099565b8681558594508a9101620002b1565b92508192620002a3565b634e487b7160e01b83526022600452602483fd5b94607f169462000082565b634e487b7160e01b600052604160045260246000fd5b600080fdfe608060408181526004918236101561001657600080fd5b600092833560e01c91826301ffc9a7146109065750816306fdde031461083b578163081812fc1461081b578163095ea7b3146106ac57816323b872dd1461068657816342842e0e146106295781636352211e146105f857816370a0823114610562578163755edd171461041e57816395d89b4114610308578163a22cb46514610238578163b88d4fde1461017e578163c87b56dd1461010f575063e985e9c5146100bf57600080fd5b3461010b578060031936011261010b5760ff816020936100dd6109c2565b6100e56109dd565b6001600160a01b0391821683526005875283832091168252855220549151911615158152f35b5080fd5b83833461010b57602036600319011261010b5761014d61014861017a9435600052600260205260018060a01b0360406000205416151590565b610a98565b81815161015981610a28565b5280519161016683610a28565b825251918291602083526020830190610971565b0390f35b905034610234576080366003190112610234576101996109c2565b6101a16109dd565b906044356064359367ffffffffffffffff8511610230573660238601121561023057840135926101d084610a7c565b926101dd87519485610a5a565b84845287366024878901011161022d5760208661022597602461022a9a0183890137860101526102156102108433610c21565b610b48565b610220838383610ce9565b610f1d565b610bfd565b51f35b80fd5b8680fd5b8280fd5b9050346102345781600319360112610234576102526109c2565b60243590811515809203610304576001600160a01b0316913383146102c15750338452600560205282842082855260205282842060ff1981541660ff831617905582519081527f17307eab39ab6107e8899845ad3d59bd9653f200f220920489ca2b5937696c3160203392a351f35b606490602085519162461bcd60e51b8352820152601960248201527f4552433732313a20617070726f766520746f2063616c6c6572000000000000006044820152fd5b8480fd5b82843461022d578060031936011261022d578151918160019283549384811c91818616958615610414575b6020968785108114610401578899509688969785829a5291826000146103da57505060011461037f575b50505061017a9291610370910385610a5a565b51928284938452830190610971565b91908693508083527fb10e2d527612073b26eecdfd717e6a320cf44b4afac2b0732d9fcbe2b7fa0cf65b8284106103c2575050508201018161037061017a61035d565b8054848a0186015288955087949093019281016103a9565b60ff19168782015293151560051b86019093019350849250610370915061017a905061035d565b634e487b7160e01b835260228a52602483fd5b92607f1692610333565b91905034610234576020928360031936011261022d5761043c6109c2565b600160065401938460065583519261045384610a28565b8084526001600160a01b0383169182156105215750610225928661051b9593819361049c61049684600052600260205260018060a01b0360406000205416151590565b15610fa8565b6000838152600260205260409020546104bf906001600160a01b03161515610496565b81815260038b528881206001815401905582815260028b52888120826bffffffffffffffffffffffff60a01b8254161790557fddf252ad1be2c89b69c2b068fc378daa952ba7f163c4a11628f55a4df523b3ef818a51a4610e01565b51908152f35b606490888088519262461bcd60e51b845283015260248201527f4552433732313a206d696e7420746f20746865207a65726f20616464726573736044820152fd5b8391503461010b57602036600319011261010b576001600160a01b036105866109c2565b169081156105a35760208480858581526003845220549051908152f35b608490602085519162461bcd60e51b8352820152602960248201527f4552433732313a2061646472657373207a65726f206973206e6f7420612076616044820152683634b21037bbb732b960b91b6064820152fd5b82843461022d57602036600319011261022d575061061860209235610ae4565b90516001600160a01b039091168152f35b90503461023457610639366109f3565b91845193602085019085821067ffffffffffffffff831117610673575091610225939161022a959387528784526102156102108433610c21565b634e487b7160e01b885260419052602487fd5b50503461010b5761022a610699366109f3565b916106a76102108433610c21565b610ce9565b9050346102345781600319360112610234576106c66109c2565b602435916001600160a01b039081806106de86610ae4565b169316928084146107ce578033149081156107af575b50156107465783865260205283852080546001600160a01b0319168317905561071c83610ae4565b169251927f8c5be1e5ebec7d5bd14f71427d1e84f3dd0314c0f7b2291e5b200ac8c7c3b9258585a4f35b608490602086519162461bcd60e51b8352820152603d60248201527f4552433732313a20617070726f76652063616c6c6572206973206e6f7420746f60448201527f6b656e206f776e6572206f7220617070726f76656420666f7220616c6c0000006064820152fd5b90508652600560205284862033875260205260ff8587205416386106f4565b855162461bcd60e51b8152602081840152602160248201527f4552433732313a20617070726f76616c20746f2063757272656e74206f776e656044820152603960f91b6064820152608490fd5b82843461022d57602036600319011261022d575061061860209235610b0a565b82843461022d578060031936011261022d5781519181825492600184811c918186169586156108fc575b6020968785108114610401578899509688969785829a5291826000146103da5750506001146108a15750505061017a9291610370910385610a5a565b91908693508280527f290decd9548b62a8d60345a988386fc84ba6bc95484008f6362f93160ef3e5635b8284106108e4575050508201018161037061017a61035d565b8054848a0186015288955087949093019281016108cb565b92607f1692610865565b849134610234576020366003190112610234573563ffffffff60e01b811680910361023457602092506380ac58cd60e01b8114908115610960575b811561094f575b5015158152f35b6301ffc9a760e01b14905083610948565b635b5e139f60e01b81149150610941565b91908251928382526000905b8482106109aa57509280602093941161099d575b601f01601f1916010190565b6000838284010152610991565b9060209081808285010151908286010152019061097d565b600435906001600160a01b03821682036109d857565b600080fd5b602435906001600160a01b03821682036109d857565b60609060031901126109d8576001600160a01b039060043582811681036109d8579160243590811681036109d8579060443590565b6020810190811067ffffffffffffffff821117610a4457604052565b634e487b7160e01b600052604160045260246000fd5b90601f8019910116810190811067ffffffffffffffff821117610a4457604052565b67ffffffffffffffff8111610a4457601f01601f191660200190565b15610a9f57565b60405162461bcd60e51b815260206004820152601860248201527f4552433732313a20696e76616c696420746f6b656e20494400000000000000006044820152606490fd5b6000908152600260205260409020546001600160a01b0316610b07811515610a98565b90565b600081815260026020526040902054610b2d906001600160a01b03161515610a98565b6000908152600460205260409020546001600160a01b031690565b15610b4f57565b60405162461bcd60e51b815260206004820152602d60248201527f4552433732313a2063616c6c6572206973206e6f7420746f6b656e206f776e6560448201526c1c881bdc88185c1c1c9bdd9959609a1b6064820152608490fd5b60809060208152603260208201527f4552433732313a207472616e7366657220746f206e6f6e20455243373231526560408201527131b2b4bb32b91034b6b83632b6b2b73a32b960711b60608201520190565b15610c0457565b60405162461bcd60e51b815280610c1d60048201610baa565b0390fd5b906001600160a01b038080610c3584610ae4565b16931691838314938415610c68575b508315610c52575b50505090565b610c5e91929350610b0a565b1614388080610c4c565b909350600052600560205260406000208260005260205260ff604060002054169238610c44565b15610c9657565b60405162461bcd60e51b815260206004820152602560248201527f4552433732313a207472616e736665722066726f6d20696e636f72726563742060448201526437bbb732b960d91b6064820152608490fd5b90610d1191610cf784610ae4565b6001600160a01b0393918416928492909183168414610c8f565b16918215610db05781610d2e91610d2786610ae4565b1614610c8f565b7fddf252ad1be2c89b69c2b068fc378daa952ba7f163c4a11628f55a4df523b3ef60008481526004602052604081206bffffffffffffffffffffffff60a01b90818154169055838252600360205260408220600019815401905584825260408220600181540190558582526002602052846040832091825416179055604051a4565b60405162461bcd60e51b8152602060048201526024808201527f4552433732313a207472616e7366657220746f20746865207a65726f206164646044820152637265737360e01b6064820152608490fd5b9192600092909190803b15610f1357610e4f946040518092630a85bd0160e11b9485835233600484015287602484015260448301526080606483015281878160209a8b966084830190610971565b03926001600160a01b03165af1849181610ed3575b50610ec2575050503d600014610eba573d610e7e81610a7c565b90610e8c6040519283610a5a565b81528091833d92013e5b80519182610eb75760405162461bcd60e51b815280610c1d60048201610baa565b01fd5b506060610e96565b6001600160e01b0319161492509050565b9091508581813d8311610f0c575b610eeb8183610a5a565b8101031261030457516001600160e01b031981168103610304579038610e64565b503d610ee1565b5050915050600190565b9293600093909291803b15610f9d57948491610f779660405180948193630a85bd0160e11b9788845233600485015260018060a01b0380921660248501526044840152608060648401528260209b8c976084830190610971565b0393165af1849181610ed35750610ec2575050503d600014610eba573d610e7e81610a7c565b505050915050600190565b15610faf57565b60405162461bcd60e51b815260206004820152601c60248201527f4552433732313a20746f6b656e20616c7265616479206d696e746564000000006044820152606490fdfea26469706673582212204a363432d7b5ee2492f1483215bf2d47eea9a517cf978e12bc9fc13da00a4d8064736f6c634300080f0033","opcodes":"PUSH1 0x80 CALLVALUE PUSH3 0x30F JUMPI PUSH1 0x1 PUSH1 0x1 PUSH1 0x40 SHL SUB SWAP1 PUSH1 0x40 SWAP1 DUP1 DUP3 ADD DUP4 DUP2 GT DUP3 DUP3 LT OR PUSH3 0x2F9 JUMPI DUP3 MSTORE PUSH1 0x8 DUP2 MSTORE PUSH1 0x20 SWAP3 PUSH8 0x4461707044656D6F PUSH1 0xC0 SHL DUP5 DUP4 ADD MSTORE DUP3 MLOAD DUP4 DUP2 ADD DUP2 DUP2 LT DUP4 DUP3 GT OR PUSH3 0x2F9 JUMPI DUP5 MSTORE PUSH1 0x7 DUP2 MSTORE PUSH7 0x11185C1C139195 PUSH1 0xCA SHL DUP6 DUP3 ADD MSTORE DUP3 MLOAD SWAP1 DUP3 DUP3 GT PUSH3 0x2F9 JUMPI PUSH1 0x0 DUP1 SLOAD SWAP3 PUSH1 0x1 SWAP6 DUP7 DUP6 DUP2 SHR SWAP6 AND DUP1 ISZERO PUSH3 0x2EE JUMPI JUMPDEST DUP10 DUP7 LT EQ PUSH3 0x2DA JUMPI DUP2 SWAP1 PUSH1 0x1F SWAP6 DUP7 DUP2 GT PUSH3 0x287 JUMPI JUMPDEST POP DUP10 SWAP1 DUP7 DUP4 GT PUSH1 0x1 EQ PUSH3 0x223 JUMPI DUP5 SWAP3 PUSH3 0x217 JUMPI JUMPDEST POP POP PUSH1 0x0 NOT PUSH1 0x3 DUP4 SWAP1 SHL SHR NOT AND SWAP1 DUP7 SHL OR DUP2 SSTORE JUMPDEST DUP2 MLOAD SWAP4 DUP5 GT PUSH3 0x203 JUMPI DUP5 SLOAD DUP6 DUP2 DUP2 SHR SWAP2 AND DUP1 ISZERO PUSH3 0x1F8 JUMPI JUMPDEST DUP9 DUP3 LT EQ PUSH3 0x1E4 JUMPI DUP4 DUP2 GT PUSH3 0x19C JUMPI JUMPDEST POP DUP7 SWAP3 DUP5 GT PUSH1 0x1 EQ PUSH3 0x136 JUMPI DUP4 SWAP5 SWAP6 SWAP7 POP SWAP3 PUSH3 0x12A JUMPI JUMPDEST POP POP PUSH1 0x0 NOT PUSH1 0x3 DUP4 SWAP1 SHL SHR NOT AND SWAP1 DUP3 SHL OR SWAP1 SSTORE JUMPDEST MLOAD PUSH2 0x102A SWAP1 DUP2 PUSH3 0x315 DUP3 CODECOPY RETURN JUMPDEST ADD MLOAD SWAP1 POP CODESIZE DUP1 PUSH3 0x108 JUMP JUMPDEST SWAP2 SWAP1 PUSH1 0x1F NOT DUP5 AND SWAP7 DUP6 DUP5 MSTORE DUP1 DUP5 KECCAK256 SWAP4 SWAP1 JUMPDEST DUP9 DUP3 LT PUSH3 0x184 JUMPI POP POP DUP4 DUP6 SWAP7 SWAP8 LT PUSH3 0x16A JUMPI JUMPDEST POP POP POP DUP2 SHL ADD SWAP1 SSTORE PUSH3 0x11C JUMP JUMPDEST ADD MLOAD PUSH1 0x0 NOT PUSH1 0xF8 DUP5 PUSH1 0x3 SHL AND SHR NOT AND SWAP1 SSTORE CODESIZE DUP1 DUP1 PUSH3 0x15C JUMP JUMPDEST DUP1 DUP8 DUP6 SWAP7 DUP3 SWAP5 SWAP7 DUP7 ADD MLOAD DUP2 SSTORE ADD SWAP6 ADD SWAP4 ADD SWAP1 PUSH3 0x147 JUMP JUMPDEST DUP6 DUP3 MSTORE DUP8 DUP3 KECCAK256 DUP5 DUP1 DUP8 ADD PUSH1 0x5 SHR DUP3 ADD SWAP3 DUP11 DUP9 LT PUSH3 0x1DA JUMPI JUMPDEST ADD PUSH1 0x5 SHR ADD SWAP1 DUP7 SWAP1 JUMPDEST DUP3 DUP2 LT PUSH3 0x1CE JUMPI POP POP PUSH3 0xEF JUMP JUMPDEST DUP4 DUP2 SSTORE ADD DUP7 SWAP1 PUSH3 0x1BE JUMP JUMPDEST SWAP3 POP DUP2 SWAP3 PUSH3 0x1B5 JUMP JUMPDEST PUSH4 0x4E487B71 PUSH1 0xE0 SHL DUP3 MSTORE PUSH1 0x22 PUSH1 0x4 MSTORE PUSH1 0x24 DUP3 REVERT JUMPDEST SWAP1 PUSH1 0x7F AND SWAP1 PUSH3 0xDD JUMP JUMPDEST PUSH4 0x4E487B71 PUSH1 0xE0 SHL DUP2 MSTORE PUSH1 0x41 PUSH1 0x4 MSTORE PUSH1 0x24 SWAP1 REVERT JUMPDEST ADD MLOAD SWAP1 POP CODESIZE DUP1 PUSH3 0xAF JUMP JUMPDEST DUP5 DUP1 MSTORE DUP11 DUP6 KECCAK256 DUP10 SWAP5 POP SWAP2 SWAP1 PUSH1 0x1F NOT DUP5 AND DUP7 JUMPDEST DUP14 DUP3 DUP3 LT PUSH3 0x270 JUMPI POP POP DUP5 GT PUSH3 0x256 JUMPI JUMPDEST POP POP POP DUP2 SHL ADD DUP2 SSTORE PUSH3 0xC3 JUMP JUMPDEST ADD MLOAD PUSH1 0x0 NOT PUSH1 0xF8 DUP5 PUSH1 0x3 SHL AND SHR NOT AND SWAP1 SSTORE CODESIZE DUP1 DUP1 PUSH3 0x248 JUMP JUMPDEST DUP4 DUP6 ADD MLOAD DUP7 SSTORE DUP13 SWAP8 SWAP1 SWAP6 ADD SWAP5 SWAP4 DUP5 ADD SWAP4 ADD PUSH3 0x235 JUMP JUMPDEST SWAP1 SWAP2 POP DUP4 DUP1 MSTORE DUP10 DUP5 KECCAK256 DUP7 DUP1 DUP6 ADD PUSH1 0x5 SHR DUP3 ADD SWAP3 DUP13 DUP7 LT PUSH3 0x2D0 JUMPI JUMPDEST SWAP2 DUP11 SWAP2 DUP7 SWAP6 SWAP5 SWAP4 ADD PUSH1 0x5 SHR ADD SWAP2 JUMPDEST DUP3 DUP2 LT PUSH3 0x2C1 JUMPI POP POP PUSH3 0x99 JUMP JUMPDEST DUP7 DUP2 SSTORE DUP6 SWAP5 POP DUP11 SWAP2 ADD PUSH3 0x2B1 JUMP JUMPDEST SWAP3 POP DUP2 SWAP3 PUSH3 0x2A3 JUMP JUMPDEST PUSH4 0x4E487B71 PUSH1 0xE0 SHL DUP4 MSTORE PUSH1 0x22 PUSH1 0x4 MSTORE PUSH1 0x24 DUP4 REVERT JUMPDEST SWAP5 PUSH1 0x7F AND SWAP5 PUSH3 0x82 JUMP JUMPDEST PUSH4 0x4E487B71 PUSH1 0xE0 SHL PUSH1 0x0 MSTORE PUSH1 0x41 PUSH1 0x4 MSTORE PUSH1 0x24 PUSH1 0x0 REVERT JUMPDEST PUSH1 0x0 DUP1 REVERT INVALID PUSH1 0x80 PUSH1 0x40 DUP2 DUP2 MSTORE PUSH1 0x4 SWAP2 DUP3 CALLDATASIZE LT ISZERO PUSH2 0x16 JUMPI PUSH1 0x0 DUP1 REVERT JUMPDEST PUSH1 0x0 SWAP3 DUP4 CALLDATALOAD PUSH1 0xE0 SHR SWAP2 DUP3 PUSH4 0x1FFC9A7 EQ PUSH2 0x906 JUMPI POP DUP2 PUSH4 0x6FDDE03 EQ PUSH2 0x83B JUMPI DUP2 PUSH4 0x81812FC EQ PUSH2 0x81B JUMPI DUP2 PUSH4 0x95EA7B3 EQ PUSH2 0x6AC JUMPI DUP2 PUSH4 0x23B872DD EQ PUSH2 0x686 JUMPI DUP2 PUSH4 0x42842E0E EQ PUSH2 0x629 JUMPI DUP2 PUSH4 0x6352211E EQ PUSH2 0x5F8 JUMPI DUP2 PUSH4 0x70A08231 EQ PUSH2 0x562 JUMPI DUP2 PUSH4 0x755EDD17 EQ PUSH2 0x41E JUMPI DUP2 PUSH4 0x95D89B41 EQ PUSH2 0x308 JUMPI DUP2 PUSH4 0xA22CB465 EQ PUSH2 0x238 JUMPI DUP2 PUSH4 0xB88D4FDE EQ PUSH2 0x17E JUMPI DUP2 PUSH4 0xC87B56DD EQ PUSH2 0x10F JUMPI POP PUSH4 0xE985E9C5 EQ PUSH2 0xBF JUMPI PUSH1 0x0 DUP1 REVERT JUMPDEST CALLVALUE PUSH2 0x10B JUMPI DUP1 PUSH1 0x3 NOT CALLDATASIZE ADD SLT PUSH2 0x10B JUMPI PUSH1 0xFF DUP2 PUSH1 0x20 SWAP4 PUSH2 0xDD PUSH2 0x9C2 JUMP JUMPDEST PUSH2 0xE5 PUSH2 0x9DD JUMP JUMPDEST PUSH1 0x1 PUSH1 0x1 PUSH1 0xA0 SHL SUB SWAP2 DUP3 AND DUP4 MSTORE PUSH1 0x5 DUP8 MSTORE DUP4 DUP4 KECCAK256 SWAP2 AND DUP3 MSTORE DUP6 MSTORE KECCAK256 SLOAD SWAP2 MLOAD SWAP2 AND ISZERO ISZERO DUP2 MSTORE RETURN JUMPDEST POP DUP1 REVERT JUMPDEST DUP4 DUP4 CALLVALUE PUSH2 0x10B JUMPI PUSH1 0x20 CALLDATASIZE PUSH1 0x3 NOT ADD SLT PUSH2 0x10B JUMPI PUSH2 0x14D PUSH2 0x148 PUSH2 0x17A SWAP5 CALLDATALOAD PUSH1 0x0 MSTORE PUSH1 0x2 PUSH1 0x20 MSTORE PUSH1 0x1 DUP1 PUSH1 0xA0 SHL SUB PUSH1 0x40 PUSH1 0x0 KECCAK256 SLOAD AND ISZERO ISZERO SWAP1 JUMP JUMPDEST PUSH2 0xA98 JUMP JUMPDEST DUP2 DUP2 MLOAD PUSH2 0x159 DUP2 PUSH2 0xA28 JUMP JUMPDEST MSTORE DUP1 MLOAD SWAP2 PUSH2 0x166 DUP4 PUSH2 0xA28 JUMP JUMPDEST DUP3 MSTORE MLOAD SWAP2 DUP3 SWAP2 PUSH1 0x20 DUP4 MSTORE PUSH1 0x20 DUP4 ADD SWAP1 PUSH2 0x971 JUMP JUMPDEST SUB SWAP1 RETURN JUMPDEST SWAP1 POP CALLVALUE PUSH2 0x234 JUMPI PUSH1 0x80 CALLDATASIZE PUSH1 0x3 NOT ADD SLT PUSH2 0x234 JUMPI PUSH2 0x199 PUSH2 0x9C2 JUMP JUMPDEST PUSH2 0x1A1 PUSH2 0x9DD JUMP JUMPDEST SWAP1 PUSH1 0x44 CALLDATALOAD PUSH1 0x64 CALLDATALOAD SWAP4 PUSH8 0xFFFFFFFFFFFFFFFF DUP6 GT PUSH2 0x230 JUMPI CALLDATASIZE PUSH1 0x23 DUP7 ADD SLT ISZERO PUSH2 0x230 JUMPI DUP5 ADD CALLDATALOAD SWAP3 PUSH2 0x1D0 DUP5 PUSH2 0xA7C JUMP JUMPDEST SWAP3 PUSH2 0x1DD DUP8 MLOAD SWAP5 DUP6 PUSH2 0xA5A JUMP JUMPDEST DUP5 DUP5 MSTORE DUP8 CALLDATASIZE PUSH1 0x24 DUP8 DUP10 ADD ADD GT PUSH2 0x22D JUMPI PUSH1 0x20 DUP7 PUSH2 0x225 SWAP8 PUSH1 0x24 PUSH2 0x22A SWAP11 ADD DUP4 DUP10 ADD CALLDATACOPY DUP7 ADD ADD MSTORE PUSH2 0x215 PUSH2 0x210 DUP5 CALLER PUSH2 0xC21 JUMP JUMPDEST PUSH2 0xB48 JUMP JUMPDEST PUSH2 0x220 DUP4 DUP4 DUP4 PUSH2 0xCE9 JUMP JUMPDEST PUSH2 0xF1D JUMP JUMPDEST PUSH2 0xBFD JUMP JUMPDEST MLOAD RETURN JUMPDEST DUP1 REVERT JUMPDEST DUP7 DUP1 REVERT JUMPDEST DUP3 DUP1 REVERT JUMPDEST SWAP1 POP CALLVALUE PUSH2 0x234 JUMPI DUP2 PUSH1 0x3 NOT CALLDATASIZE ADD SLT PUSH2 0x234 JUMPI PUSH2 0x252 PUSH2 0x9C2 JUMP JUMPDEST PUSH1 0x24 CALLDATALOAD SWAP1 DUP2 ISZERO ISZERO DUP1 SWAP3 SUB PUSH2 0x304 JUMPI PUSH1 0x1 PUSH1 0x1 PUSH1 0xA0 SHL SUB AND SWAP2 CALLER DUP4 EQ PUSH2 0x2C1 JUMPI POP CALLER DUP5 MSTORE PUSH1 0x5 PUSH1 0x20 MSTORE DUP3 DUP5 KECCAK256 DUP3 DUP6 MSTORE PUSH1 0x20 MSTORE DUP3 DUP5 KECCAK256 PUSH1 0xFF NOT DUP2 SLOAD AND PUSH1 0xFF DUP4 AND OR SWAP1 SSTORE DUP3 MLOAD SWAP1 DUP2 MSTORE PUSH32 0x17307EAB39AB6107E8899845AD3D59BD9653F200F220920489CA2B5937696C31 PUSH1 0x20 CALLER SWAP3 LOG3 MLOAD RETURN JUMPDEST PUSH1 0x64 SWAP1 PUSH1 0x20 DUP6 MLOAD SWAP2 PUSH3 0x461BCD PUSH1 0xE5 SHL DUP4 MSTORE DUP3 ADD MSTORE PUSH1 0x19 PUSH1 0x24 DUP3 ADD MSTORE PUSH32 0x4552433732313A20617070726F766520746F2063616C6C657200000000000000 PUSH1 0x44 DUP3 ADD MSTORE REVERT JUMPDEST DUP5 DUP1 REVERT JUMPDEST DUP3 DUP5 CALLVALUE PUSH2 0x22D JUMPI DUP1 PUSH1 0x3 NOT CALLDATASIZE ADD SLT PUSH2 0x22D JUMPI DUP2 MLOAD SWAP2 DUP2 PUSH1 0x1 SWAP3 DUP4 SLOAD SWAP4 DUP5 DUP2 SHR SWAP2 DUP2 DUP7 AND SWAP6 DUP7 ISZERO PUSH2 0x414 JUMPI JUMPDEST PUSH1 0x20 SWAP7 DUP8 DUP6 LT DUP2 EQ PUSH2 0x401 JUMPI DUP9 SWAP10 POP SWAP7 DUP9 SWAP7 SWAP8 DUP6 DUP3 SWAP11 MSTORE SWAP2 DUP3 PUSH1 0x0 EQ PUSH2 0x3DA JUMPI POP POP PUSH1 0x1 EQ PUSH2 0x37F JUMPI JUMPDEST POP POP POP PUSH2 0x17A SWAP3 SWAP2 PUSH2 0x370 SWAP2 SUB DUP6 PUSH2 0xA5A JUMP JUMPDEST MLOAD SWAP3 DUP3 DUP5 SWAP4 DUP5 MSTORE DUP4 ADD SWAP1 PUSH2 0x971 JUMP JUMPDEST SWAP2 SWAP1 DUP7 SWAP4 POP DUP1 DUP4 MSTORE PUSH32 0xB10E2D527612073B26EECDFD717E6A320CF44B4AFAC2B0732D9FCBE2B7FA0CF6 JUMPDEST DUP3 DUP5 LT PUSH2 0x3C2 JUMPI POP POP POP DUP3 ADD ADD DUP2 PUSH2 0x370 PUSH2 0x17A PUSH2 0x35D JUMP JUMPDEST DUP1 SLOAD DUP5 DUP11 ADD DUP7 ADD MSTORE DUP9 SWAP6 POP DUP8 SWAP5 SWAP1 SWAP4 ADD SWAP3 DUP2 ADD PUSH2 0x3A9 JUMP JUMPDEST PUSH1 0xFF NOT AND DUP8 DUP3 ADD MSTORE SWAP4 ISZERO ISZERO PUSH1 0x5 SHL DUP7 ADD SWAP1 SWAP4 ADD SWAP4 POP DUP5 SWAP3 POP PUSH2 0x370 SWAP2 POP PUSH2 0x17A SWAP1 POP PUSH2 0x35D JUMP JUMPDEST PUSH4 0x4E487B71 PUSH1 0xE0 SHL DUP4 MSTORE PUSH1 0x22 DUP11 MSTORE PUSH1 0x24 DUP4 REVERT JUMPDEST SWAP3 PUSH1 0x7F AND SWAP3 PUSH2 0x333 JUMP JUMPDEST SWAP2 SWAP1 POP CALLVALUE PUSH2 0x234 JUMPI PUSH1 0x20 SWAP3 DUP4 PUSH1 0x3 NOT CALLDATASIZE ADD SLT PUSH2 0x22D JUMPI PUSH2 0x43C PUSH2 0x9C2 JUMP JUMPDEST PUSH1 0x1 PUSH1 0x6 SLOAD ADD SWAP4 DUP5 PUSH1 0x6 SSTORE DUP4 MLOAD SWAP3 PUSH2 0x453 DUP5 PUSH2 0xA28 JUMP JUMPDEST DUP1 DUP5 MSTORE PUSH1 0x1 PUSH1 0x1 PUSH1 0xA0 SHL SUB DUP4 AND SWAP2 DUP3 ISZERO PUSH2 0x521 JUMPI POP PUSH2 0x225 SWAP3 DUP7 PUSH2 0x51B SWAP6 SWAP4 DUP2 SWAP4 PUSH2 0x49C PUSH2 0x496 DUP5 PUSH1 0x0 MSTORE PUSH1 0x2 PUSH1 0x20 MSTORE PUSH1 0x1 DUP1 PUSH1 0xA0 SHL SUB PUSH1 0x40 PUSH1 0x0 KECCAK256 SLOAD AND ISZERO ISZERO SWAP1 JUMP JUMPDEST ISZERO PUSH2 0xFA8 JUMP JUMPDEST PUSH1 0x0 DUP4 DUP2 MSTORE PUSH1 0x2 PUSH1 0x20 MSTORE PUSH1 0x40 SWAP1 KECCAK256 SLOAD PUSH2 0x4BF SWAP1 PUSH1 0x1 PUSH1 0x1 PUSH1 0xA0 SHL SUB AND ISZERO ISZERO PUSH2 0x496 JUMP JUMPDEST DUP2 DUP2 MSTORE PUSH1 0x3 DUP12 MSTORE DUP9 DUP2 KECCAK256 PUSH1 0x1 DUP2 SLOAD ADD SWAP1 SSTORE DUP3 DUP2 MSTORE PUSH1 0x2 DUP12 MSTORE DUP9 DUP2 KECCAK256 DUP3 PUSH12 0xFFFFFFFFFFFFFFFFFFFFFFFF PUSH1 0xA0 SHL DUP3 SLOAD AND OR SWAP1 SSTORE PUSH32 0xDDF252AD1BE2C89B69C2B068FC378DAA952BA7F163C4A11628F55A4DF523B3EF DUP2 DUP11 MLOAD LOG4 PUSH2 0xE01 JUMP JUMPDEST MLOAD SWAP1 DUP2 MSTORE RETURN JUMPDEST PUSH1 0x64 SWAP1 DUP9 DUP1 DUP9 MLOAD SWAP3 PUSH3 0x461BCD PUSH1 0xE5 SHL DUP5 MSTORE DUP4 ADD MSTORE PUSH1 0x24 DUP3 ADD MSTORE PUSH32 0x4552433732313A206D696E7420746F20746865207A65726F2061646472657373 PUSH1 0x44 DUP3 ADD MSTORE REVERT JUMPDEST DUP4 SWAP2 POP CALLVALUE PUSH2 0x10B JUMPI PUSH1 0x20 CALLDATASIZE PUSH1 0x3 NOT ADD SLT PUSH2 0x10B JUMPI PUSH1 0x1 PUSH1 0x1 PUSH1 0xA0 SHL SUB PUSH2 0x586 PUSH2 0x9C2 JUMP JUMPDEST AND SWAP1 DUP2 ISZERO PUSH2 0x5A3 JUMPI PUSH1 0x20 DUP5 DUP1 DUP6 DUP6 DUP2 MSTORE PUSH1 0x3 DUP5 MSTORE KECCAK256 SLOAD SWAP1 MLOAD SWAP1 DUP2 MSTORE RETURN JUMPDEST PUSH1 0x84 SWAP1 PUSH1 0x20 DUP6 MLOAD SWAP2 PUSH3 0x461BCD PUSH1 0xE5 SHL DUP4 MSTORE DUP3 ADD MSTORE PUSH1 0x29 PUSH1 0x24 DUP3 ADD MSTORE PUSH32 0x4552433732313A2061646472657373207A65726F206973206E6F742061207661 PUSH1 0x44 DUP3 ADD MSTORE PUSH9 0x3634B21037BBB732B9 PUSH1 0xB9 SHL PUSH1 0x64 DUP3 ADD MSTORE REVERT JUMPDEST DUP3 DUP5 CALLVALUE PUSH2 0x22D JUMPI PUSH1 0x20 CALLDATASIZE PUSH1 0x3 NOT ADD SLT PUSH2 0x22D JUMPI POP PUSH2 0x618 PUSH1 0x20 SWAP3 CALLDATALOAD PUSH2 0xAE4 JUMP JUMPDEST SWAP1 MLOAD PUSH1 0x1 PUSH1 0x1 PUSH1 0xA0 SHL SUB SWAP1 SWAP2 AND DUP2 MSTORE RETURN JUMPDEST SWAP1 POP CALLVALUE PUSH2 0x234 JUMPI PUSH2 0x639 CALLDATASIZE PUSH2 0x9F3 JUMP JUMPDEST SWAP2 DUP5 MLOAD SWAP4 PUSH1 0x20 DUP6 ADD SWAP1 DUP6 DUP3 LT PUSH8 0xFFFFFFFFFFFFFFFF DUP4 GT OR PUSH2 0x673 JUMPI POP SWAP2 PUSH2 0x225 SWAP4 SWAP2 PUSH2 0x22A SWAP6 SWAP4 DUP8 MSTORE DUP8 DUP5 MSTORE PUSH2 0x215 PUSH2 0x210 DUP5 CALLER PUSH2 0xC21 JUMP JUMPDEST PUSH4 0x4E487B71 PUSH1 0xE0 SHL DUP9 MSTORE PUSH1 0x41 SWAP1 MSTORE PUSH1 0x24 DUP8 REVERT JUMPDEST POP POP CALLVALUE PUSH2 0x10B JUMPI PUSH2 0x22A PUSH2 0x699 CALLDATASIZE PUSH2 0x9F3 JUMP JUMPDEST SWAP2 PUSH2 0x6A7 PUSH2 0x210 DUP5 CALLER PUSH2 0xC21 JUMP JUMPDEST PUSH2 0xCE9 JUMP JUMPDEST SWAP1 POP CALLVALUE PUSH2 0x234 JUMPI DUP2 PUSH1 0x3 NOT CALLDATASIZE ADD SLT PUSH2 0x234 JUMPI PUSH2 0x6C6 PUSH2 0x9C2 JUMP JUMPDEST PUSH1 0x24 CALLDATALOAD SWAP2 PUSH1 0x1 PUSH1 0x1 PUSH1 0xA0 SHL SUB SWAP1 DUP2 DUP1 PUSH2 0x6DE DUP7 PUSH2 0xAE4 JUMP JUMPDEST AND SWAP4 AND SWAP3 DUP1 DUP5 EQ PUSH2 0x7CE JUMPI DUP1 CALLER EQ SWAP1 DUP2 ISZERO PUSH2 0x7AF JUMPI JUMPDEST POP ISZERO PUSH2 0x746 JUMPI DUP4 DUP7 MSTORE PUSH1 0x20 MSTORE DUP4 DUP6 KECCAK256 DUP1 SLOAD PUSH1 0x1 PUSH1 0x1 PUSH1 0xA0 SHL SUB NOT AND DUP4 OR SWAP1 SSTORE PUSH2 0x71C DUP4 PUSH2 0xAE4 JUMP JUMPDEST AND SWAP3 MLOAD SWAP3 PUSH32 0x8C5BE1E5EBEC7D5BD14F71427D1E84F3DD0314C0F7B2291E5B200AC8C7C3B925 DUP6 DUP6 LOG4 RETURN JUMPDEST PUSH1 0x84 SWAP1 PUSH1 0x20 DUP7 MLOAD SWAP2 PUSH3 0x461BCD PUSH1 0xE5 SHL DUP4 MSTORE DUP3 ADD MSTORE PUSH1 0x3D PUSH1 0x24 DUP3 ADD MSTORE PUSH32 0x4552433732313A20617070726F76652063616C6C6572206973206E6F7420746F PUSH1 0x44 DUP3 ADD MSTORE PUSH32 0x6B656E206F776E6572206F7220617070726F76656420666F7220616C6C000000 PUSH1 0x64 DUP3 ADD MSTORE REVERT JUMPDEST SWAP1 POP DUP7 MSTORE PUSH1 0x5 PUSH1 0x20 MSTORE DUP5 DUP7 KECCAK256 CALLER DUP8 MSTORE PUSH1 0x20 MSTORE PUSH1 0xFF DUP6 DUP8 KECCAK256 SLOAD AND CODESIZE PUSH2 0x6F4 JUMP JUMPDEST DUP6 MLOAD PUSH3 0x461BCD PUSH1 0xE5 SHL DUP2 MSTORE PUSH1 0x20 DUP2 DUP5 ADD MSTORE PUSH1 0x21 PUSH1 0x24 DUP3 ADD MSTORE PUSH32 0x4552433732313A20617070726F76616C20746F2063757272656E74206F776E65 PUSH1 0x44 DUP3 ADD MSTORE PUSH1 0x39 PUSH1 0xF9 SHL PUSH1 0x64 DUP3 ADD MSTORE PUSH1 0x84 SWAP1 REVERT JUMPDEST DUP3 DUP5 CALLVALUE PUSH2 0x22D JUMPI PUSH1 0x20 CALLDATASIZE PUSH1 0x3 NOT ADD SLT PUSH2 0x22D JUMPI POP PUSH2 0x618 PUSH1 0x20 SWAP3 CALLDATALOAD PUSH2 0xB0A JUMP JUMPDEST DUP3 DUP5 CALLVALUE PUSH2 0x22D JUMPI DUP1 PUSH1 0x3 NOT CALLDATASIZE ADD SLT PUSH2 0x22D JUMPI DUP2 MLOAD SWAP2 DUP2 DUP3 SLOAD SWAP3 PUSH1 0x1 DUP5 DUP2 SHR SWAP2 DUP2 DUP7 AND SWAP6 DUP7 ISZERO PUSH2 0x8FC JUMPI JUMPDEST PUSH1 0x20 SWAP7 DUP8 DUP6 LT DUP2 EQ PUSH2 0x401 JUMPI DUP9 SWAP10 POP SWAP7 DUP9 SWAP7 SWAP8 DUP6 DUP3 SWAP11 MSTORE SWAP2 DUP3 PUSH1 0x0 EQ PUSH2 0x3DA JUMPI POP POP PUSH1 0x1 EQ PUSH2 0x8A1 JUMPI POP POP POP PUSH2 0x17A SWAP3 SWAP2 PUSH2 0x370 SWAP2 SUB DUP6 PUSH2 0xA5A JUMP JUMPDEST SWAP2 SWAP1 DUP7 SWAP4 POP DUP3 DUP1 MSTORE PUSH32 0x290DECD9548B62A8D60345A988386FC84BA6BC95484008F6362F93160EF3E563 JUMPDEST DUP3 DUP5 LT PUSH2 0x8E4 JUMPI POP POP POP DUP3 ADD ADD DUP2 PUSH2 0x370 PUSH2 0x17A PUSH2 0x35D JUMP JUMPDEST DUP1 SLOAD DUP5 DUP11 ADD DUP7 ADD MSTORE DUP9 SWAP6 POP DUP8 SWAP5 SWAP1 SWAP4 ADD SWAP3 DUP2 ADD PUSH2 0x8CB JUMP JUMPDEST SWAP3 PUSH1 0x7F AND SWAP3 PUSH2 0x865 JUMP JUMPDEST DUP5 SWAP2 CALLVALUE PUSH2 0x234 JUMPI PUSH1 0x20 CALLDATASIZE PUSH1 0x3 NOT ADD SLT PUSH2 0x234 JUMPI CALLDATALOAD PUSH4 0xFFFFFFFF PUSH1 0xE0 SHL DUP2 AND DUP1 SWAP2 SUB PUSH2 0x234 JUMPI PUSH1 0x20 SWAP3 POP PUSH4 0x80AC58CD PUSH1 0xE0 SHL DUP2 EQ SWAP1 DUP2 ISZERO PUSH2 0x960 JUMPI JUMPDEST DUP2 ISZERO PUSH2 0x94F JUMPI JUMPDEST POP ISZERO ISZERO DUP2 MSTORE RETURN JUMPDEST PUSH4 0x1FFC9A7 PUSH1 0xE0 SHL EQ SWAP1 POP DUP4 PUSH2 0x948 JUMP JUMPDEST PUSH4 0x5B5E139F PUSH1 0xE0 SHL DUP2 EQ SWAP2 POP PUSH2 0x941 JUMP JUMPDEST SWAP2 SWAP1 DUP3 MLOAD SWAP3 DUP4 DUP3 MSTORE PUSH1 0x0 SWAP1 JUMPDEST DUP5 DUP3 LT PUSH2 0x9AA JUMPI POP SWAP3 DUP1 PUSH1 0x20 SWAP4 SWAP5 GT PUSH2 0x99D JUMPI JUMPDEST PUSH1 0x1F ADD PUSH1 0x1F NOT AND ADD ADD SWAP1 JUMP JUMPDEST PUSH1 0x0 DUP4 DUP3 DUP5 ADD ADD MSTORE PUSH2 0x991 JUMP JUMPDEST SWAP1 PUSH1 0x20 SWAP1 DUP2 DUP1 DUP3 DUP6 ADD ADD MLOAD SWAP1 DUP3 DUP7 ADD ADD MSTORE ADD SWAP1 PUSH2 0x97D JUMP JUMPDEST PUSH1 0x4 CALLDATALOAD SWAP1 PUSH1 0x1 PUSH1 0x1 PUSH1 0xA0 SHL SUB DUP3 AND DUP3 SUB PUSH2 0x9D8 JUMPI JUMP JUMPDEST PUSH1 0x0 DUP1 REVERT JUMPDEST PUSH1 0x24 CALLDATALOAD SWAP1 PUSH1 0x1 PUSH1 0x1 PUSH1 0xA0 SHL SUB DUP3 AND DUP3 SUB PUSH2 0x9D8 JUMPI JUMP JUMPDEST PUSH1 0x60 SWAP1 PUSH1 0x3 NOT ADD SLT PUSH2 0x9D8 JUMPI PUSH1 0x1 PUSH1 0x1 PUSH1 0xA0 SHL SUB SWAP1 PUSH1 0x4 CALLDATALOAD DUP3 DUP2 AND DUP2 SUB PUSH2 0x9D8 JUMPI SWAP2 PUSH1 0x24 CALLDATALOAD SWAP1 DUP2 AND DUP2 SUB PUSH2 0x9D8 JUMPI SWAP1 PUSH1 0x44 CALLDATALOAD SWAP1 JUMP JUMPDEST PUSH1 0x20 DUP2 ADD SWAP1 DUP2 LT PUSH8 0xFFFFFFFFFFFFFFFF DUP3 GT OR PUSH2 0xA44 JUMPI PUSH1 0x40 MSTORE JUMP JUMPDEST PUSH4 0x4E487B71 PUSH1 0xE0 SHL PUSH1 0x0 MSTORE PUSH1 0x41 PUSH1 0x4 MSTORE PUSH1 0x24 PUSH1 0x0 REVERT JUMPDEST SWAP1 PUSH1 0x1F DUP1 NOT SWAP2 ADD AND DUP2 ADD SWAP1 DUP2 LT PUSH8 0xFFFFFFFFFFFFFFFF DUP3 GT OR PUSH2 0xA44 JUMPI PUSH1 0x40 MSTORE JUMP JUMPDEST PUSH8 0xFFFFFFFFFFFFFFFF DUP2 GT PUSH2 0xA44 JUMPI PUSH1 0x1F ADD PUSH1 0x1F NOT AND PUSH1 0x20 ADD SWAP1 JUMP JUMPDEST ISZERO PUSH2 0xA9F JUMPI JUMP JUMPDEST PUSH1 0x40 MLOAD PUSH3 0x461BCD PUSH1 0xE5 SHL DUP2 MSTORE PUSH1 0x20 PUSH1 0x4 DUP3 ADD MSTORE PUSH1 0x18 PUSH1 0x24 DUP3 ADD MSTORE PUSH32 0x4552433732313A20696E76616C696420746F6B656E2049440000000000000000 PUSH1 0x44 DUP3 ADD MSTORE PUSH1 0x64 SWAP1 REVERT JUMPDEST PUSH1 0x0 SWAP1 DUP2 MSTORE PUSH1 0x2 PUSH1 0x20 MSTORE PUSH1 0x40 SWAP1 KECCAK256 SLOAD PUSH1 0x1 PUSH1 0x1 PUSH1 0xA0 SHL SUB AND PUSH2 0xB07 DUP2 ISZERO ISZERO PUSH2 0xA98 JUMP JUMPDEST SWAP1 JUMP JUMPDEST PUSH1 0x0 DUP2 DUP2 MSTORE PUSH1 0x2 PUSH1 0x20 MSTORE PUSH1 0x40 SWAP1 KECCAK256 SLOAD PUSH2 0xB2D SWAP1 PUSH1 0x1 PUSH1 0x1 PUSH1 0xA0 SHL SUB AND ISZERO ISZERO PUSH2 0xA98 JUMP JUMPDEST PUSH1 0x0 SWAP1 DUP2 MSTORE PUSH1 0x4 PUSH1 0x20 MSTORE PUSH1 0x40 SWAP1 KECCAK256 SLOAD PUSH1 0x1 PUSH1 0x1 PUSH1 0xA0 SHL SUB AND SWAP1 JUMP JUMPDEST ISZERO PUSH2 0xB4F JUMPI JUMP JUMPDEST PUSH1 0x40 MLOAD PUSH3 0x461BCD PUSH1 0xE5 SHL DUP2 MSTORE PUSH1 0x20 PUSH1 0x4 DUP3 ADD MSTORE PUSH1 0x2D PUSH1 0x24 DUP3 ADD MSTORE PUSH32 0x4552433732313A2063616C6C6572206973206E6F7420746F6B656E206F776E65 PUSH1 0x44 DUP3 ADD MSTORE PUSH13 0x1C881BDC88185C1C1C9BDD9959 PUSH1 0x9A SHL PUSH1 0x64 DUP3 ADD MSTORE PUSH1 0x84 SWAP1 REVERT JUMPDEST PUSH1 0x80 SWAP1 PUSH1 0x20 DUP2 MSTORE PUSH1 0x32 PUSH1 0x20 DUP3 ADD MSTORE PUSH32 0x4552433732313A207472616E7366657220746F206E6F6E204552433732315265 PUSH1 0x40 DUP3 ADD MSTORE PUSH18 0x31B2B4BB32B91034B6B83632B6B2B73A32B9 PUSH1 0x71 SHL PUSH1 0x60 DUP3 ADD MSTORE ADD SWAP1 JUMP JUMPDEST ISZERO PUSH2 0xC04 JUMPI JUMP JUMPDEST PUSH1 0x40 MLOAD PUSH3 0x461BCD PUSH1 0xE5 SHL DUP2 MSTORE DUP1 PUSH2 0xC1D PUSH1 0x4 DUP3 ADD PUSH2 0xBAA JUMP JUMPDEST SUB SWAP1 REVERT JUMPDEST SWAP1 PUSH1 0x1 PUSH1 0x1 PUSH1 0xA0 SHL SUB DUP1 DUP1 PUSH2 0xC35 DUP5 PUSH2 0xAE4 JUMP JUMPDEST AND SWAP4 AND SWAP2 DUP4 DUP4 EQ SWAP4 DUP5 ISZERO PUSH2 0xC68 JUMPI JUMPDEST POP DUP4 ISZERO PUSH2 0xC52 JUMPI JUMPDEST POP POP POP SWAP1 JUMP JUMPDEST PUSH2 0xC5E SWAP2 SWAP3 SWAP4 POP PUSH2 0xB0A JUMP JUMPDEST AND EQ CODESIZE DUP1 DUP1 PUSH2 0xC4C JUMP JUMPDEST SWAP1 SWAP4 POP PUSH1 0x0 MSTORE PUSH1 0x5 PUSH1 0x20 MSTORE PUSH1 0x40 PUSH1 0x0 KECCAK256 DUP3 PUSH1 0x0 MSTORE PUSH1 0x20 MSTORE PUSH1 0xFF PUSH1 0x40 PUSH1 0x0 KECCAK256 SLOAD AND SWAP3 CODESIZE PUSH2 0xC44 JUMP JUMPDEST ISZERO PUSH2 0xC96 JUMPI JUMP JUMPDEST PUSH1 0x40 MLOAD PUSH3 0x461BCD PUSH1 0xE5 SHL DUP2 MSTORE PUSH1 0x20 PUSH1 0x4 DUP3 ADD MSTORE PUSH1 0x25 PUSH1 0x24 DUP3 ADD MSTORE PUSH32 0x4552433732313A207472616E736665722066726F6D20696E636F727265637420 PUSH1 0x44 DUP3 ADD MSTORE PUSH5 0x37BBB732B9 PUSH1 0xD9 SHL PUSH1 0x64 DUP3 ADD MSTORE PUSH1 0x84 SWAP1 REVERT JUMPDEST SWAP1 PUSH2 0xD11 SWAP2 PUSH2 0xCF7 DUP5 PUSH2 0xAE4 JUMP JUMPDEST PUSH1 0x1 PUSH1 0x1 PUSH1 0xA0 SHL SUB SWAP4 SWAP2 DUP5 AND SWAP3 DUP5 SWAP3 SWAP1 SWAP2 DUP4 AND DUP5 EQ PUSH2 0xC8F JUMP JUMPDEST AND SWAP2 DUP3 ISZERO PUSH2 0xDB0 JUMPI DUP2 PUSH2 0xD2E SWAP2 PUSH2 0xD27 DUP7 PUSH2 0xAE4 JUMP JUMPDEST AND EQ PUSH2 0xC8F JUMP JUMPDEST PUSH32 0xDDF252AD1BE2C89B69C2B068FC378DAA952BA7F163C4A11628F55A4DF523B3EF PUSH1 0x0 DUP5 DUP2 MSTORE PUSH1 0x4 PUSH1 0x20 MSTORE PUSH1 0x40 DUP2 KECCAK256 PUSH12 0xFFFFFFFFFFFFFFFFFFFFFFFF PUSH1 0xA0 SHL SWAP1 DUP2 DUP2 SLOAD AND SWAP1 SSTORE DUP4 DUP3 MSTORE PUSH1 0x3 PUSH1 0x20 MSTORE PUSH1 0x40 DUP3 KECCAK256 PUSH1 0x0 NOT DUP2 SLOAD ADD SWAP1 SSTORE DUP5 DUP3 MSTORE PUSH1 0x40 DUP3 KECCAK256 PUSH1 0x1 DUP2 SLOAD ADD SWAP1 SSTORE DUP6 DUP3 MSTORE PUSH1 0x2 PUSH1 0x20 MSTORE DUP5 PUSH1 0x40 DUP4 KECCAK256 SWAP2 DUP3 SLOAD AND OR SWAP1 SSTORE PUSH1 0x40 MLOAD LOG4 JUMP JUMPDEST PUSH1 0x40 MLOAD PUSH3 0x461BCD PUSH1 0xE5 SHL DUP2 MSTORE PUSH1 0x20 PUSH1 0x4 DUP3 ADD MSTORE PUSH1 0x24 DUP1 DUP3 ADD MSTORE PUSH32 0x4552433732313A207472616E7366657220746F20746865207A65726F20616464 PUSH1 0x44 DUP3 ADD MSTORE PUSH4 0x72657373 PUSH1 0xE0 SHL PUSH1 0x64 DUP3 ADD MSTORE PUSH1 0x84 SWAP1 REVERT JUMPDEST SWAP2 SWAP3 PUSH1 0x0 SWAP3 SWAP1 SWAP2 SWAP1 DUP1 EXTCODESIZE ISZERO PUSH2 0xF13 JUMPI PUSH2 0xE4F SWAP5 PUSH1 0x40 MLOAD DUP1 SWAP3 PUSH4 0xA85BD01 PUSH1 0xE1 SHL SWAP5 DUP6 DUP4 MSTORE CALLER PUSH1 0x4 DUP5 ADD MSTORE DUP8 PUSH1 0x24 DUP5 ADD MSTORE PUSH1 0x44 DUP4 ADD MSTORE PUSH1 0x80 PUSH1 0x64 DUP4 ADD MSTORE DUP2 DUP8 DUP2 PUSH1 0x20 SWAP11 DUP12 SWAP7 PUSH1 0x84 DUP4 ADD SWAP1 PUSH2 0x971 JUMP JUMPDEST SUB SWAP3 PUSH1 0x1 PUSH1 0x1 PUSH1 0xA0 SHL SUB AND GAS CALL DUP5 SWAP2 DUP2 PUSH2 0xED3 JUMPI JUMPDEST POP PUSH2 0xEC2 JUMPI POP POP POP RETURNDATASIZE PUSH1 0x0 EQ PUSH2 0xEBA JUMPI RETURNDATASIZE PUSH2 0xE7E DUP2 PUSH2 0xA7C JUMP JUMPDEST SWAP1 PUSH2 0xE8C PUSH1 0x40 MLOAD SWAP3 DUP4 PUSH2 0xA5A JUMP JUMPDEST DUP2 MSTORE DUP1 SWAP2 DUP4 RETURNDATASIZE SWAP3 ADD RETURNDATACOPY JUMPDEST DUP1 MLOAD SWAP2 DUP3 PUSH2 0xEB7 JUMPI PUSH1 0x40 MLOAD PUSH3 0x461BCD PUSH1 0xE5 SHL DUP2 MSTORE DUP1 PUSH2 0xC1D PUSH1 0x4 DUP3 ADD PUSH2 0xBAA JUMP JUMPDEST ADD REVERT JUMPDEST POP PUSH1 0x60 PUSH2 0xE96 JUMP JUMPDEST PUSH1 0x1 PUSH1 0x1 PUSH1 0xE0 SHL SUB NOT AND EQ SWAP3 POP SWAP1 POP JUMP JUMPDEST SWAP1 SWAP2 POP DUP6 DUP2 DUP2 RETURNDATASIZE DUP4 GT PUSH2 0xF0C JUMPI JUMPDEST PUSH2 0xEEB DUP2 DUP4 PUSH2 0xA5A JUMP JUMPDEST DUP2 ADD SUB SLT PUSH2 0x304 JUMPI MLOAD PUSH1 0x1 PUSH1 0x1 PUSH1 0xE0 SHL SUB NOT DUP2 AND DUP2 SUB PUSH2 0x304 JUMPI SWAP1 CODESIZE PUSH2 0xE64 JUMP JUMPDEST POP RETURNDATASIZE PUSH2 0xEE1 JUMP JUMPDEST POP POP SWAP2 POP POP PUSH1 0x1 SWAP1 JUMP JUMPDEST SWAP3 SWAP4 PUSH1 0x0 SWAP4 SWAP1 SWAP3 SWAP2 DUP1 EXTCODESIZE ISZERO PUSH2 0xF9D JUMPI SWAP5 DUP5 SWAP2 PUSH2 0xF77 SWAP7 PUSH1 0x40 MLOAD DUP1 SWAP5 DUP2 SWAP4 PUSH4 0xA85BD01 PUSH1 0xE1 SHL SWAP8 DUP9 DUP5 MSTORE CALLER PUSH1 0x4 DUP6 ADD MSTORE PUSH1 0x1 DUP1 PUSH1 0xA0 SHL SUB DUP1 SWAP3 AND PUSH1 0x24 DUP6 ADD MSTORE PUSH1 0x44 DUP5 ADD MSTORE PUSH1 0x80 PUSH1 0x64 DUP5 ADD MSTORE DUP3 PUSH1 0x20 SWAP12 DUP13 SWAP8 PUSH1 0x84 DUP4 ADD SWAP1 PUSH2 0x971 JUMP JUMPDEST SUB SWAP4 AND GAS CALL DUP5 SWAP2 DUP2 PUSH2 0xED3 JUMPI POP PUSH2 0xEC2 JUMPI POP POP POP RETURNDATASIZE PUSH1 0x0 EQ PUSH2 0xEBA JUMPI RETURNDATASIZE PUSH2 0xE7E DUP2 PUSH2 0xA7C JUMP JUMPDEST POP POP POP SWAP2 POP POP PUSH1 0x1 SWAP1 JUMP JUMPDEST ISZERO PUSH2 0xFAF JUMPI JUMP JUMPDEST PUSH1 0x40 MLOAD PUSH3 0x461BCD PUSH1 0xE5 SHL DUP2 MSTORE PUSH1 0x20 PUSH1 0x4 DUP3 ADD MSTORE PUSH1 0x1C PUSH1 0x24 DUP3 ADD MSTORE PUSH32 0x4552433732313A20746F6B656E20616C7265616479206D696E74656400000000 PUSH1 0x44 DUP3 ADD MSTORE PUSH1 0x64 SWAP1 REVERT INVALID LOG2 PUSH5 0x6970667358 0x22 SLT KECCAK256 0x4A CALLDATASIZE CALLVALUE ORIGIN 0xD7 0xB5 0xEE 0x24 SWAP3 CALL BASEFEE ORIGIN ISZERO 0xBF 0x2D SELFBALANCE 0xEE 0xA9 0xA5 OR 0xCF SWAP8 DUP15 SLT 0xBC SWAP16 0xC1 RETURNDATASIZE LOG0 EXP 0x4D DUP1 PUSH5 0x736F6C6343 STOP ADDMOD 0xF STOP CALLER "},"methodIdentifiers":{"approve(address,uint256)":"095ea7b3","balanceOf(address)":"70a08231","getApproved(uint256)":"081812fc","isApprovedForAll(address,address)":"e985e9c5","mintTo(address)":"755edd17","name()":"06fdde03","ownerOf(uint256)":"6352211e","safeTransferFrom(address,address,uint256)":"42842e0e","safeTransferFrom(address,address,uint256,bytes)":"b88d4fde","setApprovalForAll(address,bool)":"a22cb465","supportsInterface(bytes4)":"01ffc9a7","symbol()":"95d89b41","tokenURI(uint256)":"c87b56dd","transferFrom(address,address,uint256)":"23b872dd"}}}}}