{"contracts/NFT.sol":{"NFT":{"abi":[{"inputs":[],"stateMutability":"nonpayable","type":"constructor"},{"anonymous":false,"inputs":[{"indexed":true,"internalType":"address","name":"owner","type":"address"},{"indexed":true,"internalType":"address","name":"approved","type":"address"},{"indexed":true,"internalType":"uint256","name":"tokenId","type":"uint256"}],"name":"Approval","type":"event"},{"anonymous":false,"inputs":[{"indexed":true,"internalType":"address","name":"owner","type":"address"},{"indexed":true,"internalType":"address","name":"operator","type":"address"},{"indexed":false,"internalType":"bool","name":"approved","type":"bool"}],"name":"ApprovalForAll","type":"event"},{"anonymous":false,"inputs":[{"indexed":true,"internalType":"bytes32","name":"role","type":"bytes32"},{"indexed":true,"internalType":"bytes32","name":"previousAdminRole","type":"bytes32"},{"indexed":true,"internalType":"bytes32","name":"newAdminRole","type":"bytes32"}],"name":"RoleAdminChanged","type":"event"},{"anonymous":false,"inputs":[{"indexed":true,"internalType":"bytes32","name":"role","type":"bytes32"},{"indexed":true,"internalType":"address","name":"account","type":"address"},{"indexed":true,"internalType":"address","name":"sender","type":"address"}],"name":"RoleGranted","type":"event"},{"anonymous":false,"inputs":[{"indexed":true,"internalType":"bytes32","name":"role","type":"bytes32"},{"indexed":true,"internalType":"address","name":"account","type":"address"},{"indexed":true,"internalType":"address","name":"sender","type":"address"}],"name":"RoleRevoked","type":"event"},{"anonymous":false,"inputs":[{"indexed":true,"internalType":"address","name":"from","type":"address"},{"indexed":true,"internalType":"address","name":"to","type":"address"},{"indexed":true,"internalType":"uint256","name":"tokenId","type":"uint256"}],"name":"Transfer","type":"event"},{"inputs":[],"name":"DEFAULT_ADMIN_ROLE","outputs":[{"internalType":"bytes32","name":"","type":"bytes32"}],"stateMutability":"view","type":"function"},{"inputs":[{"internalType":"address","name":"to","type":"address"},{"internalType":"uint256","name":"tokenId","type":"uint256"}],"name":"approve","outputs":[],"stateMutability":"nonpayable","type":"function"},{"inputs":[{"internalType":"address","name":"owner","type":"address"}],"name":"balanceOf","outputs":[{"internalType":"uint256","name":"","type":"uint256"}],"stateMutability":"view","type":"function"},{"inputs":[],"name":"baseTokenURI","outputs":[{"internalType":"string","name":"","type":"string"}],"stateMutability":"view","type":"function"},{"inputs":[{"internalType":"uint256","name":"tokenId","type":"uint256"}],"name":"getApproved","outputs":[{"internalType":"address","name":"","type":"address"}],"stateMutability":"view","type":"function"},{"inputs":[{"internalType":"bytes32","name":"role","type":"bytes32"}],"name":"getRoleAdmin","outputs":[{"internalType":"bytes32","name":"","type":"bytes32"}],"stateMutability":"view","type":"function"},{"inputs":[{"internalType":"bytes32","name":"role","type":"bytes32"},{"internalType":"address","name":"account","type":"address"}],"name":"grantRole","outputs":[],"stateMutability":"nonpayable","type":"function"},{"inputs":[{"internalType":"bytes32","name":"role","type":"bytes32"},{"internalType":"address","name":"account","type":"address"}],"name":"hasRole","outputs":[{"internalType":"bool","name":"","type":"bool"}],"stateMutability":"view","type":"function"},{"inputs":[{"internalType":"address","name":"owner","type":"address"},{"internalType":"address","name":"operator","type":"address"}],"name":"isApprovedForAll","outputs":[{"internalType":"bool","name":"","type":"bool"}],"stateMutability":"view","type":"function"},{"inputs":[{"internalType":"address","name":"recipient","type":"address"}],"name":"mintTo","outputs":[{"internalType":"uint256","name":"","type":"uint256"}],"stateMutability":"nonpayable","type":"function"},{"inputs":[],"name":"name","outputs":[{"internalType":"string","name":"","type":"string"}],"stateMutability":"view","type":"function"},{"inputs":[{"internalType":"uint256","name":"tokenId","type":"uint256"}],"name":"ownerOf","outputs":[{"internalType":"address","name":"","type":"address"}],"stateMutability":"view","type":"function"},{"inputs":[{"internalType":"bytes32","name":"role","type":"bytes32"},{"internalType":"address","name":"account","type":"address"}],"name":"renounceRole","outputs":[],"stateMutability":"nonpayable","type":"function"},{"inputs":[{"internalType":"bytes32","name":"role","type":"bytes32"},{"internalType":"address","name":"account","type":"address"}],"name":"revokeRole","outputs":[],"stateMutability":"nonpayable","type":"function"},{"inputs":[{"internalType":"address","name":"from","type":"address"},{"internalType":"address","name":"to","type":"address"},{"internalType":"uint256","name":"tokenId","type":"uint256"}],"name":"safeTransferFrom","outputs":[],"stateMutability":"nonpayable","type":"function"},{"inputs":[{"internalType":"address","name":"from","type":"address"},{"internalType":"address","name":"to","type":"address"},{"internalType":"uint256","name":"tokenId","type":"uint256"},{"internalType":"bytes","name":"data","type":"bytes"}],"name":"safeTransferFrom","outputs":[],"stateMutability":"nonpayable","type":"function"},{"inputs":[{"internalType":"address","name":"operator","type":"address"},{"internalType":"bool","name":"approved","type":"bool"}],"name":"setApprovalForAll","outputs":[],"stateMutability":"nonpayable","type":"function"},{"inputs":[{"internalType":"string","name":"_baseTokenURI","type":"string"}],"name":"setBaseTokenURI","outputs":[],"stateMutability":"nonpayable","type":"function"},{"inputs":[{"internalType":"bytes4","name":"interfaceId","type":"bytes4"}],"name":"supportsInterface","outputs":[{"internalType":"bool","name":"","type":"bool"}],"stateMutability":"view","type":"function"},{"inputs":[],"name":"symbol","outputs":[{"internalType":"string","name":"","type":"string"}],"stateMutability":"view","type":"function"},{"inputs":[{"internalType":"uint256","name":"index","type":"uint256"}],"name":"tokenByIndex","outputs":[{"internalType":"uint256","name":"","type":"uint256"}],"stateMutability":"view","type":"function"},{"inputs":[{"internalType":"address","name":"owner","type":"address"},{"internalType":"uint256","name":"index","type":"uint256"}],"name":"tokenOfOwnerByIndex","outputs":[{"internalType":"uint256","name":"","type":"uint256"}],"stateMutability":"view","type":"function"},{"inputs":[{"internalType":"uint256","name":"tokenId","type":"uint256"}],"name":"tokenURI","outputs":[{"internalType":"string","name":"","type":"string"}],"stateMutability":"view","type":"function"},{"inputs":[],"name":"totalSupply","outputs":[{"internalType":"uint256","name":"","type":"uint256"}],"stateMutability":"view","type":"function"},{"inputs":[{"internalType":"address","name":"from","type":"address"},{"internalType":"address","name":"to","type":"address"},{"internalType":"uint256","name":"tokenId","type":"uint256"}],"name":"transferFrom","outputs":[],"stateMutability":"nonpayable","type":"function"}],"evm":{"bytecode":{"linkReferences":{},"object":"608034620002c7576040906001600160401b039080830182811182821017620002b157835260088152602090674461707044656d6f60c01b82820152835184810181811085821117620002b1578552600781526611185c1c13919560ca1b83820152815193808511620002b157600094806200007c8754620002cc565b94601f9586811162000281575b508690868311600114620002195788926200020d575b50508160011b916000199060031b1c19161785555b8151908111620001f95780600192620000ce8454620002cc565b858111620001be575b5085908583116001146200015a5787926200014e575b5050600019600383901b1c191690821b1790555b6200010e600c54620002cc565b918183116200012c575b846000600c5551611e4b9081620003238239f35b83600c62000144955220910160051c81019062000309565b3880808062000118565b015190503880620000ed565b8488528688208594509190601f198416895b89828210620001a757505084116200018d575b505050811b01905562000101565b015160001960f88460031b161c191690553880806200017f565b83850151865588979095019493840193016200016c565b620001e8908589528789208780860160051c8201928a8710620001ef575b0160051c019062000309565b38620000d7565b92508192620001dc565b634e487b7160e01b85526041600452602485fd5b0151905038806200009f565b8880528789209250601f198416895b898282106200026a57505090846001959493921062000250575b505050811b018555620000b4565b015160001960f88460031b161c1916905538808062000242565b600185968293968601518155019501930162000228565b620002aa90898052888a208880860160051c8201928b8710620001ef570160051c019062000309565b3862000089565b634e487b7160e01b600052604160045260246000fd5b600080fd5b90600182811c92168015620002fe575b6020831014620002e857565b634e487b7160e01b600052602260045260246000fd5b91607f1691620002dc565b81811062000315575050565b600081556001016200030956fe608060408181526004918236101561001657600080fd5b600092833560e01c91826301ffc9a7146110dd5750816306fdde0314611035578163081812fc14611015578163095ea7b314610ea657816318160ddd14610e8757816323b872dd14610e61578163248a9ca314610e365781632f2ff15d14610d8c5781632f745c5914610ce057816330176e1314610b6d57816336568abe14610adc57816342842e0e14610a7f5781634f6ccce7146109eb5781636352211e146109ba57816370a082311461098d578163755edd17146107c557816391d148541461077e57816395d89b41146106d6578163a217fddf146106bb578163a22cb465146105eb578163b88d4fde14610560578163c87b56dd146102a1578163d547741f1461025e57508063d547cfb7146101885763e985e9c51461013857600080fd5b3461018457806003193601126101845760ff816020936101566111a2565b61015e6111bd565b6001600160a01b0391821683526005875283832091168252855220549151911615158152f35b5080fd5b503461018457816003193601126101845780519082600c546101a9816112af565b8085529160019180831690811561023657506001146101eb575b5050506101d5826101e794038361123a565b5191829160208352602083019061117d565b0390f35b9450600c8552600080516020611df68339815191525b82861061021e575050506101d58260206101e795820101946101c3565b80546020878701810191909152909501948101610201565b6101e79750869350602092506101d594915060ff191682840152151560051b820101946101c3565b90503461029d578160031936011261029d5761029a903561027d6111bd565b908085526006602052610295600185872001546112e9565b61161f565b51f35b8280fd5b83915034610184576020918260031936011261055d57813560008181526002602052604090205484929186916102e1906001600160a01b0316151561170e565b8151948391600c54876102f3826112af565b94858252888201956001938a85821691826000146105405750506001146104f9575b509061032291038961123a565b8751156104da5781809387917a184f03e93ff9f4daa797ed6e38ed64bf6a1f01000000000000000090818110156104cd575b5050886d04ee2d6d415b85acef8100000000808710156104be575b5050662386f26fc10000808610156104af575b506305f5e100808610156104a0575b5061271080861015610494575b50506064841015610486575b60219082600a8096101561047f575b939291906103e08382016103d86103cf8261125c565b9a519a8b61123a565b808a5261125c565b888b019990601f1901368b3750870101905b610449575b50505050936104389261041d949261042c6101e7978a5197889551809288880190611148565b84019151809386840190611148565b0103808452018261123a565b925b5192828493845283019061117d565b600019019083906f181899199a1a9b1b9c1cb0b131b232b360811b8282061a83530491821561047a579190826103f2565b6103f7565b01826103b9565b6064909304926002016103aa565b90940493018b8061039e565b6008919295049401908c610391565b6010919295049401908c610382565b9091929504940190888d61036f565b0494508691508c80610354565b505050509091506101e7925051906104f182611208565b81529261043a565b600c8952889150600080516020611df68339815191525b81831061052557505081018801610322610315565b8054838d018c01528c9a8e99508c9450909201918401610510565b60ff1916895291151560051b840190910191506103229050610315565b80fd5b90503461029d57608036600319011261029d5761057b6111a2565b906105846111bd565b916044356064359367ffffffffffffffff85116105e757366023860112156105e7576105bf6105e29486602461029a98369301359101611278565b926105d26105cd8433611893565b6117be565b6105dd83838361195b565b611cc0565b611873565b8680fd5b90503461029d578160031936011261029d576106056111a2565b602435908115158092036106b7576001600160a01b0316913383146106745750338452600560205282842082855260205282842060ff1981541660ff831617905582519081527f17307eab39ab6107e8899845ad3d59bd9653f200f220920489ca2b5937696c3160203392a351f35b606490602085519162461bcd60e51b8352820152601960248201527f4552433732313a20617070726f766520746f2063616c6c6572000000000000006044820152fd5b8480fd5b50503461018457816003193601126101845751908152602090f35b5050346101845781600319360112610184578051908260018054916106fa836112af565b808652928281169081156102365750600114610722575050506101d5826101e794038361123a565b94508085527fb10e2d527612073b26eecdfd717e6a320cf44b4afac2b0732d9fcbe2b7fa0cf65b828610610766575050506101d58260206101e795820101946101c3565b80546020878701810191909152909501948101610749565b90503461029d578160031936011261029d578160209360ff9261079f6111bd565b90358252600686528282206001600160a01b039091168252855220549151911615158152f35b9190503461029d576020928360031936011261055d576107e36111a2565b6001600b54019384600b558351926107fa84611208565b8084526001600160a01b03831691821561094c57600087815260026020526040902054610833906001600160a01b031615155b15611da9565b60095490878352600a89528187842055600160401b821015610939575092866109339593819361088b836108708960016105e29b01600955611d4b565b90919082549060031b600019811b9283911b16911916179055565b61089484611697565b82825260078c528982208183528c5289822084905583825260088c52898220556000838152600260205260409020546108d7906001600160a01b0316151561082d565b81815260038b528881206001815401905582815260028b52888120826bffffffffffffffffffffffff60a01b8254161790557fddf252ad1be2c89b69c2b068fc378daa952ba7f163c4a11628f55a4df523b3ef818a51a4611ba4565b51908152f35b634e487b7160e01b835260419052602482fd5b606490888088519262461bcd60e51b845283015260248201527f4552433732313a206d696e7420746f20746865207a65726f20616464726573736044820152fd5b505034610184576020366003190112610184576020906109b36109ae6111a2565b611697565b9051908152f35b82843461055d57602036600319011261055d57506109da6020923561175a565b90516001600160a01b039091168152f35b9050823461055d57602036600319011261055d5750803590600954821015610a2757602083610a1984611d4b565b91905490519160031b1c8152f35b608490602084519162461bcd60e51b8352820152602c60248201527f455243373231456e756d657261626c653a20676c6f62616c20696e646578206f60448201526b7574206f6620626f756e647360a01b6064820152fd5b90503461029d57610a8f366111d3565b91845193602085019085821067ffffffffffffffff831117610ac95750916105e2939161029a959387528784526105d26105cd8433611893565b634e487b7160e01b885260419052602487fd5b90503461029d578160031936011261029d57610af66111bd565b90336001600160a01b03831603610b12579061029a913561161f565b608490602084519162461bcd60e51b8352820152602f60248201527f416363657373436f6e74726f6c3a2063616e206f6e6c792072656e6f756e636560448201526e103937b632b9903337b91039b2b63360891b6064820152fd5b8383346101845760208060031936011261029d5767ffffffffffffffff9084358281116106b757366023820112156106b757610bb29036906024818901359101611278565b948551928311610ccd5750610bc8600c546112af565b601f8111610c7d575b5080601f8311600114610c0d5750839482939492610c02575b50508160011b916000199060031b1c191617600c5551f35b015190508480610bea565b600c8552601f19831695600080516020611df6833981519152929186905b888210610c6557505083600195969710610c4c575b505050811b01600c5551f35b015160001960f88460031b161c19169055848080610c40565b80600185968294968601518155019501930190610c2b565b600c8552600080516020611df6833981519152601f840160051c810191838510610cc3575b601f0160051c01905b818110610cb85750610bd1565b858155600101610cab565b9091508190610ca2565b634e487b7160e01b855260419052602484fd5b82843461055d578160031936011261055d57610cfa6111a2565b60243590610d0781611697565b821015610d35576001600160a01b031682526007602090815283832091835290815290829020548251908152f35b835162461bcd60e51b8152602081870152602b60248201527f455243373231456e756d657261626c653a206f776e657220696e646578206f7560448201526a74206f6620626f756e647360a81b6064820152608490fd5b90503461029d578160031936011261029d5735610da76111bd565b8184526006602052610dbe600184862001546112e9565b818452600660209081528385206001600160a01b039092168086529190528284205460ff1615610ded57505051f35b8184526006602052828420818552602052828420600160ff1982541617905533917f2f8788117e7eff1d82e926ec794901d17c78024a50270940304540a733656f0d858551a451f35b90503461029d57602036600319011261029d5781602093600192358152600685522001549051908152f35b5050346101845761029a610e74366111d3565b91610e826105cd8433611893565b61195b565b5050346101845781600319360112610184576020906009549051908152f35b90503461029d578160031936011261029d57610ec06111a2565b602435916001600160a01b03908180610ed88661175a565b16931692808414610fc857803314908115610fa9575b5015610f405783865260205283852080546001600160a01b03191683179055610f168361175a565b169251927f8c5be1e5ebec7d5bd14f71427d1e84f3dd0314c0f7b2291e5b200ac8c7c3b9258585a4f35b608490602086519162461bcd60e51b8352820152603d60248201527f4552433732313a20617070726f76652063616c6c6572206973206e6f7420746f60448201527f6b656e206f776e6572206f7220617070726f76656420666f7220616c6c0000006064820152fd5b90508652600560205284862033875260205260ff858720541638610eee565b855162461bcd60e51b8152602081840152602160248201527f4552433732313a20617070726f76616c20746f2063757272656e74206f776e656044820152603960f91b6064820152608490fd5b82843461055d57602036600319011261055d57506109da60209235611780565b505034610184578160031936011261018457805190828054611056816112af565b808552916001918083169081156102365750600114611081575050506101d5826101e794038361123a565b80809650527f290decd9548b62a8d60345a988386fc84ba6bc95484008f6362f93160ef3e5635b8286106110c5575050506101d58260206101e795820101946101c3565b805460208787018101919091529095019481016110a8565b84913461029d57602036600319011261029d573563ffffffff60e01b811680910361029d57602092506380ac58cd60e01b8114908115611137575b8115611126575b5015158152f35b6301ffc9a760e01b1490508361111f565b635b5e139f60e01b81149150611118565b918091926000905b828210611168575011611161575050565b6000910152565b91508060209183015181860152018291611150565b9060209161119681518092818552858086019101611148565b601f01601f1916010190565b600435906001600160a01b03821682036111b857565b600080fd5b602435906001600160a01b03821682036111b857565b60609060031901126111b8576001600160a01b039060043582811681036111b8579160243590811681036111b8579060443590565b6020810190811067ffffffffffffffff82111761122457604052565b634e487b7160e01b600052604160045260246000fd5b90601f8019910116810190811067ffffffffffffffff82111761122457604052565b67ffffffffffffffff811161122457601f01601f191660200190565b9291926112848261125c565b91611292604051938461123a565b8294818452818301116111b8578281602093846000960137010152565b90600182811c921680156112df575b60208310146112c957565b634e487b7160e01b600052602260045260246000fd5b91607f16916112be565b60009080825260209060068252604092838120338252835260ff8482205416156113135750505050565b83519167ffffffffffffffff9033606085018381118682101761160b578752602a855285850191873684378551156115f757603083538551916001928310156115e3576078602188015360295b838111611579575061153757908751936080850190858210908211176115235788526042845286840194606036873784511561150f5760308653845182101561150f5790607860218601536041915b8183116114a15750505061145f5761145b93869361143f936114306048946114079a519a8b957f416363657373436f6e74726f6c3a206163636f756e74200000000000000000008c8801525180926037880190611148565b8401917001034b99036b4b9b9b4b733903937b6329607d1b603784015251809386840190611148565b0103602881018752018561123a565b5192839262461bcd60e51b84526004840152602483019061117d565b0390fd5b60648587519062461bcd60e51b825280600483015260248201527f537472696e67733a20686578206c656e67746820696e73756666696369656e746044820152fd5b909192600f811660108110156114fb576f181899199a1a9b1b9c1cb0b131b232b360811b901a6114d18588611d98565b5360041c9280156114e7576000190191906113af565b634e487b7160e01b82526011600452602482fd5b634e487b7160e01b83526032600452602483fd5b634e487b7160e01b81526032600452602490fd5b634e487b7160e01b86526041600452602486fd5b60648789519062461bcd60e51b825280600483015260248201527f537472696e67733a20686578206c656e67746820696e73756666696369656e746044820152fd5b90600f811660108110156115cf576f181899199a1a9b1b9c1cb0b131b232b360811b901a6115a7838a611d98565b5360041c9080156115bb5760001901611360565b634e487b7160e01b87526011600452602487fd5b634e487b7160e01b88526032600452602488fd5b634e487b7160e01b86526032600452602486fd5b634e487b7160e01b85526032600452602485fd5b634e487b7160e01b85526041600452602485fd5b906000918083526006602052604083209160018060a01b03169182845260205260ff60408420541661165057505050565b8083526006602052604083208284526020526040832060ff1981541690557ff6391f5c32d9c69d2a47ea670b442974b53935d1edc7fd64eb21e047a839171b3393604051a4565b6001600160a01b031680156116b757600052600360205260406000205490565b60405162461bcd60e51b815260206004820152602960248201527f4552433732313a2061646472657373207a65726f206973206e6f7420612076616044820152683634b21037bbb732b960b91b6064820152608490fd5b1561171557565b60405162461bcd60e51b815260206004820152601860248201527f4552433732313a20696e76616c696420746f6b656e20494400000000000000006044820152606490fd5b6000908152600260205260409020546001600160a01b031661177d81151561170e565b90565b6000818152600260205260409020546117a3906001600160a01b0316151561170e565b6000908152600460205260409020546001600160a01b031690565b156117c557565b60405162461bcd60e51b815260206004820152602d60248201527f4552433732313a2063616c6c6572206973206e6f7420746f6b656e206f776e6560448201526c1c881bdc88185c1c1c9bdd9959609a1b6064820152608490fd5b60809060208152603260208201527f4552433732313a207472616e7366657220746f206e6f6e20455243373231526560408201527131b2b4bb32b91034b6b83632b6b2b73a32b960711b60608201520190565b1561187a57565b60405162461bcd60e51b81528061145b60048201611820565b906001600160a01b0380806118a78461175a565b169316918383149384156118da575b5083156118c4575b50505090565b6118d091929350611780565b16143880806118be565b909350600052600560205260406000208260005260205260ff6040600020541692386118b6565b1561190857565b60405162461bcd60e51b815260206004820152602560248201527f4552433732313a207472616e736665722066726f6d20696e636f72726563742060448201526437bbb732b960d91b6064820152608490fd5b61197f916119688461175a565b6001600160a01b0393848416939185168414611901565b838216938415611b5357839182611a9a575090506009549085600052600a60205281604060002055600160401b821015611224576119e5926119cc87610870856001899701600955611d4b565b828603611a67575b506119de8661175a565b1614611901565b7fddf252ad1be2c89b69c2b068fc378daa952ba7f163c4a11628f55a4df523b3ef60008481526004602052604081206bffffffffffffffffffffffff60a01b90818154169055838252600360205260408220600019815401905584825260408220600181540190558582526002602052846040832091825416179055604051a4565b611a7090611697565b604060008781526007602052818120838252602052888282205588815260086020522055386119d4565b858303611aac575b506119e5926119cc565b611ab7919250611697565b9060018210611b3d576119e5928492600019016000908882526020906008825260409182842054828103611b06575b508a84528383812055868452600781528284209184525281205592611aa2565b8785526007825283852083865282528385205488865260078352848620828752835280858720558552600882528385205538611ae6565b634e487b7160e01b600052601160045260246000fd5b60405162461bcd60e51b8152602060048201526024808201527f4552433732313a207472616e7366657220746f20746865207a65726f206164646044820152637265737360e01b6064820152608490fd5b9192600092909190803b15611cb657611bf2946040518092630a85bd0160e11b9485835233600484015287602484015260448301526080606483015281878160209a8b96608483019061117d565b03926001600160a01b03165af1849181611c76575b50611c65575050503d600014611c5d573d611c218161125c565b90611c2f604051928361123a565b81528091833d92013e5b80519182611c5a5760405162461bcd60e51b81528061145b60048201611820565b01fd5b506060611c39565b6001600160e01b0319161492509050565b9091508581813d8311611caf575b611c8e818361123a565b810103126106b757516001600160e01b0319811681036106b7579038611c07565b503d611c84565b5050915050600190565b9293600093909291803b15611d4057948491611d1a9660405180948193630a85bd0160e11b9788845233600485015260018060a01b0380921660248501526044840152608060648401528260209b8c97608483019061117d565b0393165af1849181611c765750611c65575050503d600014611c5d573d611c218161125c565b505050915050600190565b600954811015611d825760096000527f6e1540171b6c0c960b71a7020d9f60077f6af931a8bbf590da0223dacf75c7af0190600090565b634e487b7160e01b600052603260045260246000fd5b908151811015611d82570160200190565b15611db057565b60405162461bcd60e51b815260206004820152601c60248201527f4552433732313a20746f6b656e20616c7265616479206d696e746564000000006044820152606490fdfedf6966c971051c3d54ec59162606531493a51404a002842f56009d7e5cf4a8c7a264697066735822122039d7f6d88fe6c5221544f6f422686a2410627c84b9949c23b0ccada02976096a64736f6c634300080f0033","opcodes":"PUSH1 0x80 CALLVALUE PUSH3 0x2C7 JUMPI PUSH1 0x40 SWAP1 PUSH1 0x1 PUSH1 0x1 PUSH1 0x40 SHL SUB SWAP1 DUP1 DUP4 ADD DUP3 DUP2 GT DUP3 DUP3 LT OR PUSH3 0x2B1 JUMPI DUP4 MSTORE PUSH1 0x8 DUP2 MSTORE PUSH1 0x20 SWAP1 PUSH8 0x4461707044656D6F PUSH1 0xC0 SHL DUP3 DUP3 ADD MSTORE DUP4 MLOAD DUP5 DUP2 ADD DUP2 DUP2 LT DUP6 DUP3 GT OR PUSH3 0x2B1 JUMPI DUP6 MSTORE PUSH1 0x7 DUP2 MSTORE PUSH7 0x11185C1C139195 PUSH1 0xCA SHL DUP4 DUP3 ADD MSTORE DUP2 MLOAD SWAP4 DUP1 DUP6 GT PUSH3 0x2B1 JUMPI PUSH1 0x0 SWAP5 DUP1 PUSH3 0x7C DUP8 SLOAD PUSH3 0x2CC JUMP JUMPDEST SWAP5 PUSH1 0x1F SWAP6 DUP7 DUP2 GT PUSH3 0x281 JUMPI JUMPDEST POP DUP7 SWAP1 DUP7 DUP4 GT PUSH1 0x1 EQ PUSH3 0x219 JUMPI DUP9 SWAP3 PUSH3 0x20D JUMPI JUMPDEST POP POP DUP2 PUSH1 0x1 SHL SWAP2 PUSH1 0x0 NOT SWAP1 PUSH1 0x3 SHL SHR NOT AND OR DUP6 SSTORE JUMPDEST DUP2 MLOAD SWAP1 DUP2 GT PUSH3 0x1F9 JUMPI DUP1 PUSH1 0x1 SWAP3 PUSH3 0xCE DUP5 SLOAD PUSH3 0x2CC JUMP JUMPDEST DUP6 DUP2 GT PUSH3 0x1BE JUMPI JUMPDEST POP DUP6 SWAP1 DUP6 DUP4 GT PUSH1 0x1 EQ PUSH3 0x15A JUMPI DUP8 SWAP3 PUSH3 0x14E JUMPI JUMPDEST POP POP PUSH1 0x0 NOT PUSH1 0x3 DUP4 SWAP1 SHL SHR NOT AND SWAP1 DUP3 SHL OR SWAP1 SSTORE JUMPDEST PUSH3 0x10E PUSH1 0xC SLOAD PUSH3 0x2CC JUMP JUMPDEST SWAP2 DUP2 DUP4 GT PUSH3 0x12C JUMPI JUMPDEST DUP5 PUSH1 0x0 PUSH1 0xC SSTORE MLOAD PUSH2 0x1E4B SWAP1 DUP2 PUSH3 0x323 DUP3 CODECOPY RETURN JUMPDEST DUP4 PUSH1 0xC PUSH3 0x144 SWAP6 MSTORE KECCAK256 SWAP2 ADD PUSH1 0x5 SHR DUP2 ADD SWAP1 PUSH3 0x309 JUMP JUMPDEST CODESIZE DUP1 DUP1 DUP1 PUSH3 0x118 JUMP JUMPDEST ADD MLOAD SWAP1 POP CODESIZE DUP1 PUSH3 0xED JUMP JUMPDEST DUP5 DUP9 MSTORE DUP7 DUP9 KECCAK256 DUP6 SWAP5 POP SWAP2 SWAP1 PUSH1 0x1F NOT DUP5 AND DUP10 JUMPDEST DUP10 DUP3 DUP3 LT PUSH3 0x1A7 JUMPI POP POP DUP5 GT PUSH3 0x18D JUMPI JUMPDEST POP POP POP DUP2 SHL ADD SWAP1 SSTORE PUSH3 0x101 JUMP JUMPDEST ADD MLOAD PUSH1 0x0 NOT PUSH1 0xF8 DUP5 PUSH1 0x3 SHL AND SHR NOT AND SWAP1 SSTORE CODESIZE DUP1 DUP1 PUSH3 0x17F JUMP JUMPDEST DUP4 DUP6 ADD MLOAD DUP7 SSTORE DUP9 SWAP8 SWAP1 SWAP6 ADD SWAP5 SWAP4 DUP5 ADD SWAP4 ADD PUSH3 0x16C JUMP JUMPDEST PUSH3 0x1E8 SWAP1 DUP6 DUP10 MSTORE DUP8 DUP10 KECCAK256 DUP8 DUP1 DUP7 ADD PUSH1 0x5 SHR DUP3 ADD SWAP3 DUP11 DUP8 LT PUSH3 0x1EF JUMPI JUMPDEST ADD PUSH1 0x5 SHR ADD SWAP1 PUSH3 0x309 JUMP JUMPDEST CODESIZE PUSH3 0xD7 JUMP JUMPDEST SWAP3 POP DUP2 SWAP3 PUSH3 0x1DC JUMP JUMPDEST PUSH4 0x4E487B71 PUSH1 0xE0 SHL DUP6 MSTORE PUSH1 0x41 PUSH1 0x4 MSTORE PUSH1 0x24 DUP6 REVERT JUMPDEST ADD MLOAD SWAP1 POP CODESIZE DUP1 PUSH3 0x9F JUMP JUMPDEST DUP9 DUP1 MSTORE DUP8 DUP10 KECCAK256 SWAP3 POP PUSH1 0x1F NOT DUP5 AND DUP10 JUMPDEST DUP10 DUP3 DUP3 LT PUSH3 0x26A JUMPI POP POP SWAP1 DUP5 PUSH1 0x1 SWAP6 SWAP5 SWAP4 SWAP3 LT PUSH3 0x250 JUMPI JUMPDEST POP POP POP DUP2 SHL ADD DUP6 SSTORE PUSH3 0xB4 JUMP JUMPDEST ADD MLOAD PUSH1 0x0 NOT PUSH1 0xF8 DUP5 PUSH1 0x3 SHL AND SHR NOT AND SWAP1 SSTORE CODESIZE DUP1 DUP1 PUSH3 0x242 JUMP JUMPDEST PUSH1 0x1 DUP6 SWAP7 DUP3 SWAP4 SWAP7 DUP7 ADD MLOAD DUP2 SSTORE ADD SWAP6 ADD SWAP4 ADD PUSH3 0x228 JUMP JUMPDEST PUSH3 0x2AA SWAP1 DUP10 DUP1 MSTORE DUP9 DUP11 KECCAK256 DUP9 DUP1 DUP7 ADD PUSH1 0x5 SHR DUP3 ADD SWAP3 DUP12 DUP8 LT PUSH3 0x1EF JUMPI ADD PUSH1 0x5 SHR ADD SWAP1 PUSH3 0x309 JUMP JUMPDEST CODESIZE PUSH3 0x89 JUMP JUMPDEST PUSH4 0x4E487B71 PUSH1 0xE0 SHL PUSH1 0x0 MSTORE PUSH1 0x41 PUSH1 0x4 MSTORE PUSH1 0x24 PUSH1 0x0 REVERT JUMPDEST PUSH1 0x0 DUP1 REVERT JUMPDEST SWAP1 PUSH1 0x1 DUP3 DUP2 SHR SWAP3 AND DUP1 ISZERO PUSH3 0x2FE JUMPI JUMPDEST PUSH1 0x20 DUP4 LT EQ PUSH3 0x2E8 JUMPI JUMP JUMPDEST PUSH4 0x4E487B71 PUSH1 0xE0 SHL PUSH1 0x0 MSTORE PUSH1 0x22 PUSH1 0x4 MSTORE PUSH1 0x24 PUSH1 0x0 REVERT JUMPDEST SWAP2 PUSH1 0x7F AND SWAP2 PUSH3 0x2DC JUMP JUMPDEST DUP2 DUP2 LT PUSH3 0x315 JUMPI POP POP JUMP JUMPDEST PUSH1 0x0 DUP2 SSTORE PUSH1 0x1 ADD PUSH3 0x309 JUMP INVALID PUSH1 0x80 PUSH1 0x40 DUP2 DUP2 MSTORE PUSH1 0x4 SWAP2 DUP3 CALLDATASIZE LT ISZERO PUSH2 0x16 JUMPI PUSH1 0x0 DUP1 REVERT JUMPDEST PUSH1 0x0 SWAP3 DUP4 CALLDATALOAD PUSH1 0xE0 SHR SWAP2 DUP3 PUSH4 0x1FFC9A7 EQ PUSH2 0x10DD JUMPI POP DUP2 PUSH4 0x6FDDE03 EQ PUSH2 0x1035 JUMPI DUP2 PUSH4 0x81812FC EQ PUSH2 0x1015 JUMPI DUP2 PUSH4 0x95EA7B3 EQ PUSH2 0xEA6 JUMPI DUP2 PUSH4 0x18160DDD EQ PUSH2 0xE87 JUMPI DUP2 PUSH4 0x23B872DD EQ PUSH2 0xE61 JUMPI DUP2 PUSH4 0x248A9CA3 EQ PUSH2 0xE36 JUMPI DUP2 PUSH4 0x2F2FF15D EQ PUSH2 0xD8C JUMPI DUP2 PUSH4 0x2F745C59 EQ PUSH2 0xCE0 JUMPI DUP2 PUSH4 0x30176E13 EQ PUSH2 0xB6D JUMPI DUP2 PUSH4 0x36568ABE EQ PUSH2 0xADC JUMPI DUP2 PUSH4 0x42842E0E EQ PUSH2 0xA7F JUMPI DUP2 PUSH4 0x4F6CCCE7 EQ PUSH2 0x9EB JUMPI DUP2 PUSH4 0x6352211E EQ PUSH2 0x9BA JUMPI DUP2 PUSH4 0x70A08231 EQ PUSH2 0x98D JUMPI DUP2 PUSH4 0x755EDD17 EQ PUSH2 0x7C5 JUMPI DUP2 PUSH4 0x91D14854 EQ PUSH2 0x77E JUMPI DUP2 PUSH4 0x95D89B41 EQ PUSH2 0x6D6 JUMPI DUP2 PUSH4 0xA217FDDF EQ PUSH2 0x6BB JUMPI DUP2 PUSH4 0xA22CB465 EQ PUSH2 0x5EB JUMPI DUP2 PUSH4 0xB88D4FDE EQ PUSH2 0x560 JUMPI DUP2 PUSH4 0xC87B56DD EQ PUSH2 0x2A1 JUMPI DUP2 PUSH4 0xD547741F EQ PUSH2 0x25E JUMPI POP DUP1 PUSH4 0xD547CFB7 EQ PUSH2 0x188 JUMPI PUSH4 0xE985E9C5 EQ PUSH2 0x138 JUMPI PUSH1 0x0 DUP1 REVERT JUMPDEST CALLVALUE PUSH2 0x184 JUMPI DUP1 PUSH1 0x3 NOT CALLDATASIZE ADD SLT PUSH2 0x184 JUMPI PUSH1 0xFF DUP2 PUSH1 0x20 SWAP4 PUSH2 0x156 PUSH2 0x11A2 JUMP JUMPDEST PUSH2 0x15E PUSH2 0x11BD JUMP JUMPDEST PUSH1 0x1 PUSH1 0x1 PUSH1 0xA0 SHL SUB SWAP2 DUP3 AND DUP4 MSTORE PUSH1 0x5 DUP8 MSTORE DUP4 DUP4 KECCAK256 SWAP2 AND DUP3 MSTORE DUP6 MSTORE KECCAK256 SLOAD SWAP2 MLOAD SWAP2 AND ISZERO ISZERO DUP2 MSTORE RETURN JUMPDEST POP DUP1 REVERT JUMPDEST POP CALLVALUE PUSH2 0x184 JUMPI DUP2 PUSH1 0x3 NOT CALLDATASIZE ADD SLT PUSH2 0x184 JUMPI DUP1 MLOAD SWAP1 DUP3 PUSH1 0xC SLOAD PUSH2 0x1A9 DUP2 PUSH2 0x12AF JUMP JUMPDEST DUP1 DUP6 MSTORE SWAP2 PUSH1 0x1 SWAP2 DUP1 DUP4 AND SWAP1 DUP2 ISZERO PUSH2 0x236 JUMPI POP PUSH1 0x1 EQ PUSH2 0x1EB JUMPI JUMPDEST POP POP POP PUSH2 0x1D5 DUP3 PUSH2 0x1E7 SWAP5 SUB DUP4 PUSH2 0x123A JUMP JUMPDEST MLOAD SWAP2 DUP3 SWAP2 PUSH1 0x20 DUP4 MSTORE PUSH1 0x20 DUP4 ADD SWAP1 PUSH2 0x117D JUMP JUMPDEST SUB SWAP1 RETURN JUMPDEST SWAP5 POP PUSH1 0xC DUP6 MSTORE PUSH1 0x0 DUP1 MLOAD PUSH1 0x20 PUSH2 0x1DF6 DUP4 CODECOPY DUP2 MLOAD SWAP2 MSTORE JUMPDEST DUP3 DUP7 LT PUSH2 0x21E JUMPI POP POP POP PUSH2 0x1D5 DUP3 PUSH1 0x20 PUSH2 0x1E7 SWAP6 DUP3 ADD ADD SWAP5 PUSH2 0x1C3 JUMP JUMPDEST DUP1 SLOAD PUSH1 0x20 DUP8 DUP8 ADD DUP2 ADD SWAP2 SWAP1 SWAP2 MSTORE SWAP1 SWAP6 ADD SWAP5 DUP2 ADD PUSH2 0x201 JUMP JUMPDEST PUSH2 0x1E7 SWAP8 POP DUP7 SWAP4 POP PUSH1 0x20 SWAP3 POP PUSH2 0x1D5 SWAP5 SWAP2 POP PUSH1 0xFF NOT AND DUP3 DUP5 ADD MSTORE ISZERO ISZERO PUSH1 0x5 SHL DUP3 ADD ADD SWAP5 PUSH2 0x1C3 JUMP JUMPDEST SWAP1 POP CALLVALUE PUSH2 0x29D JUMPI DUP2 PUSH1 0x3 NOT CALLDATASIZE ADD SLT PUSH2 0x29D JUMPI PUSH2 0x29A SWAP1 CALLDATALOAD PUSH2 0x27D PUSH2 0x11BD JUMP JUMPDEST SWAP1 DUP1 DUP6 MSTORE PUSH1 0x6 PUSH1 0x20 MSTORE PUSH2 0x295 PUSH1 0x1 DUP6 DUP8 KECCAK256 ADD SLOAD PUSH2 0x12E9 JUMP JUMPDEST PUSH2 0x161F JUMP JUMPDEST MLOAD RETURN JUMPDEST DUP3 DUP1 REVERT JUMPDEST DUP4 SWAP2 POP CALLVALUE PUSH2 0x184 JUMPI PUSH1 0x20 SWAP2 DUP3 PUSH1 0x3 NOT CALLDATASIZE ADD SLT PUSH2 0x55D JUMPI DUP2 CALLDATALOAD PUSH1 0x0 DUP2 DUP2 MSTORE PUSH1 0x2 PUSH1 0x20 MSTORE PUSH1 0x40 SWAP1 KECCAK256 SLOAD DUP5 SWAP3 SWAP2 DUP7 SWAP2 PUSH2 0x2E1 SWAP1 PUSH1 0x1 PUSH1 0x1 PUSH1 0xA0 SHL SUB AND ISZERO ISZERO PUSH2 0x170E JUMP JUMPDEST DUP2 MLOAD SWAP5 DUP4 SWAP2 PUSH1 0xC SLOAD DUP8 PUSH2 0x2F3 DUP3 PUSH2 0x12AF JUMP JUMPDEST SWAP5 DUP6 DUP3 MSTORE DUP9 DUP3 ADD SWAP6 PUSH1 0x1 SWAP4 DUP11 DUP6 DUP3 AND SWAP2 DUP3 PUSH1 0x0 EQ PUSH2 0x540 JUMPI POP POP PUSH1 0x1 EQ PUSH2 0x4F9 JUMPI JUMPDEST POP SWAP1 PUSH2 0x322 SWAP2 SUB DUP10 PUSH2 0x123A JUMP JUMPDEST DUP8 MLOAD ISZERO PUSH2 0x4DA JUMPI DUP2 DUP1 SWAP4 DUP8 SWAP2 PUSH27 0x184F03E93FF9F4DAA797ED6E38ED64BF6A1F010000000000000000 SWAP1 DUP2 DUP2 LT ISZERO PUSH2 0x4CD JUMPI JUMPDEST POP POP DUP9 PUSH14 0x4EE2D6D415B85ACEF8100000000 DUP1 DUP8 LT ISZERO PUSH2 0x4BE JUMPI JUMPDEST POP POP PUSH7 0x2386F26FC10000 DUP1 DUP7 LT ISZERO PUSH2 0x4AF JUMPI JUMPDEST POP PUSH4 0x5F5E100 DUP1 DUP7 LT ISZERO PUSH2 0x4A0 JUMPI JUMPDEST POP PUSH2 0x2710 DUP1 DUP7 LT ISZERO PUSH2 0x494 JUMPI JUMPDEST POP POP PUSH1 0x64 DUP5 LT ISZERO PUSH2 0x486 JUMPI JUMPDEST PUSH1 0x21 SWAP1 DUP3 PUSH1 0xA DUP1 SWAP7 LT ISZERO PUSH2 0x47F JUMPI JUMPDEST SWAP4 SWAP3 SWAP2 SWAP1 PUSH2 0x3E0 DUP4 DUP3 ADD PUSH2 0x3D8 PUSH2 0x3CF DUP3 PUSH2 0x125C JUMP JUMPDEST SWAP11 MLOAD SWAP11 DUP12 PUSH2 0x123A JUMP JUMPDEST DUP1 DUP11 MSTORE PUSH2 0x125C JUMP JUMPDEST DUP9 DUP12 ADD SWAP10 SWAP1 PUSH1 0x1F NOT ADD CALLDATASIZE DUP12 CALLDATACOPY POP DUP8 ADD ADD SWAP1 JUMPDEST PUSH2 0x449 JUMPI JUMPDEST POP POP POP POP SWAP4 PUSH2 0x438 SWAP3 PUSH2 0x41D SWAP5 SWAP3 PUSH2 0x42C PUSH2 0x1E7 SWAP8 DUP11 MLOAD SWAP8 DUP9 SWAP6 MLOAD DUP1 SWAP3 DUP9 DUP9 ADD SWAP1 PUSH2 0x1148 JUMP JUMPDEST DUP5 ADD SWAP2 MLOAD DUP1 SWAP4 DUP7 DUP5 ADD SWAP1 PUSH2 0x1148 JUMP JUMPDEST ADD SUB DUP1 DUP5 MSTORE ADD DUP3 PUSH2 0x123A JUMP JUMPDEST SWAP3 JUMPDEST MLOAD SWAP3 DUP3 DUP5 SWAP4 DUP5 MSTORE DUP4 ADD SWAP1 PUSH2 0x117D JUMP JUMPDEST PUSH1 0x0 NOT ADD SWAP1 DUP4 SWAP1 PUSH16 0x181899199A1A9B1B9C1CB0B131B232B3 PUSH1 0x81 SHL DUP3 DUP3 MOD BYTE DUP4 MSTORE8 DIV SWAP2 DUP3 ISZERO PUSH2 0x47A JUMPI SWAP2 SWAP1 DUP3 PUSH2 0x3F2 JUMP JUMPDEST PUSH2 0x3F7 JUMP JUMPDEST ADD DUP3 PUSH2 0x3B9 JUMP JUMPDEST PUSH1 0x64 SWAP1 SWAP4 DIV SWAP3 PUSH1 0x2 ADD PUSH2 0x3AA JUMP JUMPDEST SWAP1 SWAP5 DIV SWAP4 ADD DUP12 DUP1 PUSH2 0x39E JUMP JUMPDEST PUSH1 0x8 SWAP2 SWAP3 SWAP6 DIV SWAP5 ADD SWAP1 DUP13 PUSH2 0x391 JUMP JUMPDEST PUSH1 0x10 SWAP2 SWAP3 SWAP6 DIV SWAP5 ADD SWAP1 DUP13 PUSH2 0x382 JUMP JUMPDEST SWAP1 SWAP2 SWAP3 SWAP6 DIV SWAP5 ADD SWAP1 DUP9 DUP14 PUSH2 0x36F JUMP JUMPDEST DIV SWAP5 POP DUP7 SWAP2 POP DUP13 DUP1 PUSH2 0x354 JUMP JUMPDEST POP POP POP POP SWAP1 SWAP2 POP PUSH2 0x1E7 SWAP3 POP MLOAD SWAP1 PUSH2 0x4F1 DUP3 PUSH2 0x1208 JUMP JUMPDEST DUP2 MSTORE SWAP3 PUSH2 0x43A JUMP JUMPDEST PUSH1 0xC DUP10 MSTORE DUP9 SWAP2 POP PUSH1 0x0 DUP1 MLOAD PUSH1 0x20 PUSH2 0x1DF6 DUP4 CODECOPY DUP2 MLOAD SWAP2 MSTORE JUMPDEST DUP2 DUP4 LT PUSH2 0x525 JUMPI POP POP DUP2 ADD DUP9 ADD PUSH2 0x322 PUSH2 0x315 JUMP JUMPDEST DUP1 SLOAD DUP4 DUP14 ADD DUP13 ADD MSTORE DUP13 SWAP11 DUP15 SWAP10 POP DUP13 SWAP5 POP SWAP1 SWAP3 ADD SWAP2 DUP5 ADD PUSH2 0x510 JUMP JUMPDEST PUSH1 0xFF NOT AND DUP10 MSTORE SWAP2 ISZERO ISZERO PUSH1 0x5 SHL DUP5 ADD SWAP1 SWAP2 ADD SWAP2 POP PUSH2 0x322 SWAP1 POP PUSH2 0x315 JUMP JUMPDEST DUP1 REVERT JUMPDEST SWAP1 POP CALLVALUE PUSH2 0x29D JUMPI PUSH1 0x80 CALLDATASIZE PUSH1 0x3 NOT ADD SLT PUSH2 0x29D JUMPI PUSH2 0x57B PUSH2 0x11A2 JUMP JUMPDEST SWAP1 PUSH2 0x584 PUSH2 0x11BD JUMP JUMPDEST SWAP2 PUSH1 0x44 CALLDATALOAD PUSH1 0x64 CALLDATALOAD SWAP4 PUSH8 0xFFFFFFFFFFFFFFFF DUP6 GT PUSH2 0x5E7 JUMPI CALLDATASIZE PUSH1 0x23 DUP7 ADD SLT ISZERO PUSH2 0x5E7 JUMPI PUSH2 0x5BF PUSH2 0x5E2 SWAP5 DUP7 PUSH1 0x24 PUSH2 0x29A SWAP9 CALLDATASIZE SWAP4 ADD CALLDATALOAD SWAP2 ADD PUSH2 0x1278 JUMP JUMPDEST SWAP3 PUSH2 0x5D2 PUSH2 0x5CD DUP5 CALLER PUSH2 0x1893 JUMP JUMPDEST PUSH2 0x17BE JUMP JUMPDEST PUSH2 0x5DD DUP4 DUP4 DUP4 PUSH2 0x195B JUMP JUMPDEST PUSH2 0x1CC0 JUMP JUMPDEST PUSH2 0x1873 JUMP JUMPDEST DUP7 DUP1 REVERT JUMPDEST SWAP1 POP CALLVALUE PUSH2 0x29D JUMPI DUP2 PUSH1 0x3 NOT CALLDATASIZE ADD SLT PUSH2 0x29D JUMPI PUSH2 0x605 PUSH2 0x11A2 JUMP JUMPDEST PUSH1 0x24 CALLDATALOAD SWAP1 DUP2 ISZERO ISZERO DUP1 SWAP3 SUB PUSH2 0x6B7 JUMPI PUSH1 0x1 PUSH1 0x1 PUSH1 0xA0 SHL SUB AND SWAP2 CALLER DUP4 EQ PUSH2 0x674 JUMPI POP CALLER DUP5 MSTORE PUSH1 0x5 PUSH1 0x20 MSTORE DUP3 DUP5 KECCAK256 DUP3 DUP6 MSTORE PUSH1 0x20 MSTORE DUP3 DUP5 KECCAK256 PUSH1 0xFF NOT DUP2 SLOAD AND PUSH1 0xFF DUP4 AND OR SWAP1 SSTORE DUP3 MLOAD SWAP1 DUP2 MSTORE PUSH32 0x17307EAB39AB6107E8899845AD3D59BD9653F200F220920489CA2B5937696C31 PUSH1 0x20 CALLER SWAP3 LOG3 MLOAD RETURN JUMPDEST PUSH1 0x64 SWAP1 PUSH1 0x20 DUP6 MLOAD SWAP2 PUSH3 0x461BCD PUSH1 0xE5 SHL DUP4 MSTORE DUP3 ADD MSTORE PUSH1 0x19 PUSH1 0x24 DUP3 ADD MSTORE PUSH32 0x4552433732313A20617070726F766520746F2063616C6C657200000000000000 PUSH1 0x44 DUP3 ADD MSTORE REVERT JUMPDEST DUP5 DUP1 REVERT JUMPDEST POP POP CALLVALUE PUSH2 0x184 JUMPI DUP2 PUSH1 0x3 NOT CALLDATASIZE ADD SLT PUSH2 0x184 JUMPI MLOAD SWAP1 DUP2 MSTORE PUSH1 0x20 SWAP1 RETURN JUMPDEST POP POP CALLVALUE PUSH2 0x184 JUMPI DUP2 PUSH1 0x3 NOT CALLDATASIZE ADD SLT PUSH2 0x184 JUMPI DUP1 MLOAD SWAP1 DUP3 PUSH1 0x1 DUP1 SLOAD SWAP2 PUSH2 0x6FA DUP4 PUSH2 0x12AF JUMP JUMPDEST DUP1 DUP7 MSTORE SWAP3 DUP3 DUP2 AND SWAP1 DUP2 ISZERO PUSH2 0x236 JUMPI POP PUSH1 0x1 EQ PUSH2 0x722 JUMPI POP POP POP PUSH2 0x1D5 DUP3 PUSH2 0x1E7 SWAP5 SUB DUP4 PUSH2 0x123A JUMP JUMPDEST SWAP5 POP DUP1 DUP6 MSTORE PUSH32 0xB10E2D527612073B26EECDFD717E6A320CF44B4AFAC2B0732D9FCBE2B7FA0CF6 JUMPDEST DUP3 DUP7 LT PUSH2 0x766 JUMPI POP POP POP PUSH2 0x1D5 DUP3 PUSH1 0x20 PUSH2 0x1E7 SWAP6 DUP3 ADD ADD SWAP5 PUSH2 0x1C3 JUMP JUMPDEST DUP1 SLOAD PUSH1 0x20 DUP8 DUP8 ADD DUP2 ADD SWAP2 SWAP1 SWAP2 MSTORE SWAP1 SWAP6 ADD SWAP5 DUP2 ADD PUSH2 0x749 JUMP JUMPDEST SWAP1 POP CALLVALUE PUSH2 0x29D JUMPI DUP2 PUSH1 0x3 NOT CALLDATASIZE ADD SLT PUSH2 0x29D JUMPI DUP2 PUSH1 0x20 SWAP4 PUSH1 0xFF SWAP3 PUSH2 0x79F PUSH2 0x11BD JUMP JUMPDEST SWAP1 CALLDATALOAD DUP3 MSTORE PUSH1 0x6 DUP7 MSTORE DUP3 DUP3 KECCAK256 PUSH1 0x1 PUSH1 0x1 PUSH1 0xA0 SHL SUB SWAP1 SWAP2 AND DUP3 MSTORE DUP6 MSTORE KECCAK256 SLOAD SWAP2 MLOAD SWAP2 AND ISZERO ISZERO DUP2 MSTORE RETURN JUMPDEST SWAP2 SWAP1 POP CALLVALUE PUSH2 0x29D JUMPI PUSH1 0x20 SWAP3 DUP4 PUSH1 0x3 NOT CALLDATASIZE ADD SLT PUSH2 0x55D JUMPI PUSH2 0x7E3 PUSH2 0x11A2 JUMP JUMPDEST PUSH1 0x1 PUSH1 0xB SLOAD ADD SWAP4 DUP5 PUSH1 0xB SSTORE DUP4 MLOAD SWAP3 PUSH2 0x7FA DUP5 PUSH2 0x1208 JUMP JUMPDEST DUP1 DUP5 MSTORE PUSH1 0x1 PUSH1 0x1 PUSH1 0xA0 SHL SUB DUP4 AND SWAP2 DUP3 ISZERO PUSH2 0x94C JUMPI PUSH1 0x0 DUP8 DUP2 MSTORE PUSH1 0x2 PUSH1 0x20 MSTORE PUSH1 0x40 SWAP1 KECCAK256 SLOAD PUSH2 0x833 SWAP1 PUSH1 0x1 PUSH1 0x1 PUSH1 0xA0 SHL SUB AND ISZERO ISZERO JUMPDEST ISZERO PUSH2 0x1DA9 JUMP JUMPDEST PUSH1 0x9 SLOAD SWAP1 DUP8 DUP4 MSTORE PUSH1 0xA DUP10 MSTORE DUP2 DUP8 DUP5 KECCAK256 SSTORE PUSH1 0x1 PUSH1 0x40 SHL DUP3 LT ISZERO PUSH2 0x939 JUMPI POP SWAP3 DUP7 PUSH2 0x933 SWAP6 SWAP4 DUP2 SWAP4 PUSH2 0x88B DUP4 PUSH2 0x870 DUP10 PUSH1 0x1 PUSH2 0x5E2 SWAP12 ADD PUSH1 0x9 SSTORE PUSH2 0x1D4B JUMP JUMPDEST SWAP1 SWAP2 SWAP1 DUP3 SLOAD SWAP1 PUSH1 0x3 SHL PUSH1 0x0 NOT DUP2 SHL SWAP3 DUP4 SWAP2 SHL AND SWAP2 NOT AND OR SWAP1 SSTORE JUMP JUMPDEST PUSH2 0x894 DUP5 PUSH2 0x1697 JUMP JUMPDEST DUP3 DUP3 MSTORE PUSH1 0x7 DUP13 MSTORE DUP10 DUP3 KECCAK256 DUP2 DUP4 MSTORE DUP13 MSTORE DUP10 DUP3 KECCAK256 DUP5 SWAP1 SSTORE DUP4 DUP3 MSTORE PUSH1 0x8 DUP13 MSTORE DUP10 DUP3 KECCAK256 SSTORE PUSH1 0x0 DUP4 DUP2 MSTORE PUSH1 0x2 PUSH1 0x20 MSTORE PUSH1 0x40 SWAP1 KECCAK256 SLOAD PUSH2 0x8D7 SWAP1 PUSH1 0x1 PUSH1 0x1 PUSH1 0xA0 SHL SUB AND ISZERO ISZERO PUSH2 0x82D JUMP JUMPDEST DUP2 DUP2 MSTORE PUSH1 0x3 DUP12 MSTORE DUP9 DUP2 KECCAK256 PUSH1 0x1 DUP2 SLOAD ADD SWAP1 SSTORE DUP3 DUP2 MSTORE PUSH1 0x2 DUP12 MSTORE DUP9 DUP2 KECCAK256 DUP3 PUSH12 0xFFFFFFFFFFFFFFFFFFFFFFFF PUSH1 0xA0 SHL DUP3 SLOAD AND OR SWAP1 SSTORE PUSH32 0xDDF252AD1BE2C89B69C2B068FC378DAA952BA7F163C4A11628F55A4DF523B3EF DUP2 DUP11 MLOAD LOG4 PUSH2 0x1BA4 JUMP JUMPDEST MLOAD SWAP1 DUP2 MSTORE RETURN JUMPDEST PUSH4 0x4E487B71 PUSH1 0xE0 SHL DUP4 MSTORE PUSH1 0x41 SWAP1 MSTORE PUSH1 0x24 DUP3 REVERT JUMPDEST PUSH1 0x64 SWAP1 DUP9 DUP1 DUP9 MLOAD SWAP3 PUSH3 0x461BCD PUSH1 0xE5 SHL DUP5 MSTORE DUP4 ADD MSTORE PUSH1 0x24 DUP3 ADD MSTORE PUSH32 0x4552433732313A206D696E7420746F20746865207A65726F2061646472657373 PUSH1 0x44 DUP3 ADD MSTORE REVERT JUMPDEST POP POP CALLVALUE PUSH2 0x184 JUMPI PUSH1 0x20 CALLDATASIZE PUSH1 0x3 NOT ADD SLT PUSH2 0x184 JUMPI PUSH1 0x20 SWAP1 PUSH2 0x9B3 PUSH2 0x9AE PUSH2 0x11A2 JUMP JUMPDEST PUSH2 0x1697 JUMP JUMPDEST SWAP1 MLOAD SWAP1 DUP2 MSTORE RETURN JUMPDEST DUP3 DUP5 CALLVALUE PUSH2 0x55D JUMPI PUSH1 0x20 CALLDATASIZE PUSH1 0x3 NOT ADD SLT PUSH2 0x55D JUMPI POP PUSH2 0x9DA PUSH1 0x20 SWAP3 CALLDATALOAD PUSH2 0x175A JUMP JUMPDEST SWAP1 MLOAD PUSH1 0x1 PUSH1 0x1 PUSH1 0xA0 SHL SUB SWAP1 SWAP2 AND DUP2 MSTORE RETURN JUMPDEST SWAP1 POP DUP3 CALLVALUE PUSH2 0x55D JUMPI PUSH1 0x20 CALLDATASIZE PUSH1 0x3 NOT ADD SLT PUSH2 0x55D JUMPI POP DUP1 CALLDATALOAD SWAP1 PUSH1 0x9 SLOAD DUP3 LT ISZERO PUSH2 0xA27 JUMPI PUSH1 0x20 DUP4 PUSH2 0xA19 DUP5 PUSH2 0x1D4B JUMP JUMPDEST SWAP2 SWAP1 SLOAD SWAP1 MLOAD SWAP2 PUSH1 0x3 SHL SHR DUP2 MSTORE RETURN JUMPDEST PUSH1 0x84 SWAP1 PUSH1 0x20 DUP5 MLOAD SWAP2 PUSH3 0x461BCD PUSH1 0xE5 SHL DUP4 MSTORE DUP3 ADD MSTORE PUSH1 0x2C PUSH1 0x24 DUP3 ADD MSTORE PUSH32 0x455243373231456E756D657261626C653A20676C6F62616C20696E646578206F PUSH1 0x44 DUP3 ADD MSTORE PUSH12 0x7574206F6620626F756E6473 PUSH1 0xA0 SHL PUSH1 0x64 DUP3 ADD MSTORE REVERT JUMPDEST SWAP1 POP CALLVALUE PUSH2 0x29D JUMPI PUSH2 0xA8F CALLDATASIZE PUSH2 0x11D3 JUMP JUMPDEST SWAP2 DUP5 MLOAD SWAP4 PUSH1 0x20 DUP6 ADD SWAP1 DUP6 DUP3 LT PUSH8 0xFFFFFFFFFFFFFFFF DUP4 GT OR PUSH2 0xAC9 JUMPI POP SWAP2 PUSH2 0x5E2 SWAP4 SWAP2 PUSH2 0x29A SWAP6 SWAP4 DUP8 MSTORE DUP8 DUP5 MSTORE PUSH2 0x5D2 PUSH2 0x5CD DUP5 CALLER PUSH2 0x1893 JUMP JUMPDEST PUSH4 0x4E487B71 PUSH1 0xE0 SHL DUP9 MSTORE PUSH1 0x41 SWAP1 MSTORE PUSH1 0x24 DUP8 REVERT JUMPDEST SWAP1 POP CALLVALUE PUSH2 0x29D JUMPI DUP2 PUSH1 0x3 NOT CALLDATASIZE ADD SLT PUSH2 0x29D JUMPI PUSH2 0xAF6 PUSH2 0x11BD JUMP JUMPDEST SWAP1 CALLER PUSH1 0x1 PUSH1 0x1 PUSH1 0xA0 SHL SUB DUP4 AND SUB PUSH2 0xB12 JUMPI SWAP1 PUSH2 0x29A SWAP2 CALLDATALOAD PUSH2 0x161F JUMP JUMPDEST PUSH1 0x84 SWAP1 PUSH1 0x20 DUP5 MLOAD SWAP2 PUSH3 0x461BCD PUSH1 0xE5 SHL DUP4 MSTORE DUP3 ADD MSTORE PUSH1 0x2F PUSH1 0x24 DUP3 ADD MSTORE PUSH32 0x416363657373436F6E74726F6C3A2063616E206F6E6C792072656E6F756E6365 PUSH1 0x44 DUP3 ADD MSTORE PUSH15 0x103937B632B9903337B91039B2B633 PUSH1 0x89 SHL PUSH1 0x64 DUP3 ADD MSTORE REVERT JUMPDEST DUP4 DUP4 CALLVALUE PUSH2 0x184 JUMPI PUSH1 0x20 DUP1 PUSH1 0x3 NOT CALLDATASIZE ADD SLT PUSH2 0x29D JUMPI PUSH8 0xFFFFFFFFFFFFFFFF SWAP1 DUP5 CALLDATALOAD DUP3 DUP2 GT PUSH2 0x6B7 JUMPI CALLDATASIZE PUSH1 0x23 DUP3 ADD SLT ISZERO PUSH2 0x6B7 JUMPI PUSH2 0xBB2 SWAP1 CALLDATASIZE SWAP1 PUSH1 0x24 DUP2 DUP10 ADD CALLDATALOAD SWAP2 ADD PUSH2 0x1278 JUMP JUMPDEST SWAP5 DUP6 MLOAD SWAP3 DUP4 GT PUSH2 0xCCD JUMPI POP PUSH2 0xBC8 PUSH1 0xC SLOAD PUSH2 0x12AF JUMP JUMPDEST PUSH1 0x1F DUP2 GT PUSH2 0xC7D JUMPI JUMPDEST POP DUP1 PUSH1 0x1F DUP4 GT PUSH1 0x1 EQ PUSH2 0xC0D JUMPI POP DUP4 SWAP5 DUP3 SWAP4 SWAP5 SWAP3 PUSH2 0xC02 JUMPI JUMPDEST POP POP DUP2 PUSH1 0x1 SHL SWAP2 PUSH1 0x0 NOT SWAP1 PUSH1 0x3 SHL SHR NOT AND OR PUSH1 0xC SSTORE MLOAD RETURN JUMPDEST ADD MLOAD SWAP1 POP DUP5 DUP1 PUSH2 0xBEA JUMP JUMPDEST PUSH1 0xC DUP6 MSTORE PUSH1 0x1F NOT DUP4 AND SWAP6 PUSH1 0x0 DUP1 MLOAD PUSH1 0x20 PUSH2 0x1DF6 DUP4 CODECOPY DUP2 MLOAD SWAP2 MSTORE SWAP3 SWAP2 DUP7 SWAP1 JUMPDEST DUP9 DUP3 LT PUSH2 0xC65 JUMPI POP POP DUP4 PUSH1 0x1 SWAP6 SWAP7 SWAP8 LT PUSH2 0xC4C JUMPI JUMPDEST POP POP POP DUP2 SHL ADD PUSH1 0xC SSTORE MLOAD RETURN JUMPDEST ADD MLOAD PUSH1 0x0 NOT PUSH1 0xF8 DUP5 PUSH1 0x3 SHL AND SHR NOT AND SWAP1 SSTORE DUP5 DUP1 DUP1 PUSH2 0xC40 JUMP JUMPDEST DUP1 PUSH1 0x1 DUP6 SWAP7 DUP3 SWAP5 SWAP7 DUP7 ADD MLOAD DUP2 SSTORE ADD SWAP6 ADD SWAP4 ADD SWAP1 PUSH2 0xC2B JUMP JUMPDEST PUSH1 0xC DUP6 MSTORE PUSH1 0x0 DUP1 MLOAD PUSH1 0x20 PUSH2 0x1DF6 DUP4 CODECOPY DUP2 MLOAD SWAP2 MSTORE PUSH1 0x1F DUP5 ADD PUSH1 0x5 SHR DUP2 ADD SWAP2 DUP4 DUP6 LT PUSH2 0xCC3 JUMPI JUMPDEST PUSH1 0x1F ADD PUSH1 0x5 SHR ADD SWAP1 JUMPDEST DUP2 DUP2 LT PUSH2 0xCB8 JUMPI POP PUSH2 0xBD1 JUMP JUMPDEST DUP6 DUP2 SSTORE PUSH1 0x1 ADD PUSH2 0xCAB JUMP JUMPDEST SWAP1 SWAP2 POP DUP2 SWAP1 PUSH2 0xCA2 JUMP JUMPDEST PUSH4 0x4E487B71 PUSH1 0xE0 SHL DUP6 MSTORE PUSH1 0x41 SWAP1 MSTORE PUSH1 0x24 DUP5 REVERT JUMPDEST DUP3 DUP5 CALLVALUE PUSH2 0x55D JUMPI DUP2 PUSH1 0x3 NOT CALLDATASIZE ADD SLT PUSH2 0x55D JUMPI PUSH2 0xCFA PUSH2 0x11A2 JUMP JUMPDEST PUSH1 0x24 CALLDATALOAD SWAP1 PUSH2 0xD07 DUP2 PUSH2 0x1697 JUMP JUMPDEST DUP3 LT ISZERO PUSH2 0xD35 JUMPI PUSH1 0x1 PUSH1 0x1 PUSH1 0xA0 SHL SUB AND DUP3 MSTORE PUSH1 0x7 PUSH1 0x20 SWAP1 DUP2 MSTORE DUP4 DUP4 KECCAK256 SWAP2 DUP4 MSTORE SWAP1 DUP2 MSTORE SWAP1 DUP3 SWAP1 KECCAK256 SLOAD DUP3 MLOAD SWAP1 DUP2 MSTORE RETURN JUMPDEST DUP4 MLOAD PUSH3 0x461BCD PUSH1 0xE5 SHL DUP2 MSTORE PUSH1 0x20 DUP2 DUP8 ADD MSTORE PUSH1 0x2B PUSH1 0x24 DUP3 ADD MSTORE PUSH32 0x455243373231456E756D657261626C653A206F776E657220696E646578206F75 PUSH1 0x44 DUP3 ADD MSTORE PUSH11 0x74206F6620626F756E6473 PUSH1 0xA8 SHL PUSH1 0x64 DUP3 ADD MSTORE PUSH1 0x84 SWAP1 REVERT JUMPDEST SWAP1 POP CALLVALUE PUSH2 0x29D JUMPI DUP2 PUSH1 0x3 NOT CALLDATASIZE ADD SLT PUSH2 0x29D JUMPI CALLDATALOAD PUSH2 0xDA7 PUSH2 0x11BD JUMP JUMPDEST DUP2 DUP5 MSTORE PUSH1 0x6 PUSH1 0x20 MSTORE PUSH2 0xDBE PUSH1 0x1 DUP5 DUP7 KECCAK256 ADD SLOAD PUSH2 0x12E9 JUMP JUMPDEST DUP2 DUP5 MSTORE PUSH1 0x6 PUSH1 0x20 SWAP1 DUP2 MSTORE DUP4 DUP6 KECCAK256 PUSH1 0x1 PUSH1 0x1 PUSH1 0xA0 SHL SUB SWAP1 SWAP3 AND DUP1 DUP7 MSTORE SWAP2 SWAP1 MSTORE DUP3 DUP5 KECCAK256 SLOAD PUSH1 0xFF AND ISZERO PUSH2 0xDED JUMPI POP POP MLOAD RETURN JUMPDEST DUP2 DUP5 MSTORE PUSH1 0x6 PUSH1 0x20 MSTORE DUP3 DUP5 KECCAK256 DUP2 DUP6 MSTORE PUSH1 0x20 MSTORE DUP3 DUP5 KECCAK256 PUSH1 0x1 PUSH1 0xFF NOT DUP3 SLOAD AND OR SWAP1 SSTORE CALLER SWAP2 PUSH32 0x2F8788117E7EFF1D82E926EC794901D17C78024A50270940304540A733656F0D DUP6 DUP6 MLOAD LOG4 MLOAD RETURN JUMPDEST SWAP1 POP CALLVALUE PUSH2 0x29D JUMPI PUSH1 0x20 CALLDATASIZE PUSH1 0x3 NOT ADD SLT PUSH2 0x29D JUMPI DUP2 PUSH1 0x20 SWAP4 PUSH1 0x1 SWAP3 CALLDATALOAD DUP2 MSTORE PUSH1 0x6 DUP6 MSTORE KECCAK256 ADD SLOAD SWAP1 MLOAD SWAP1 DUP2 MSTORE RETURN JUMPDEST POP POP CALLVALUE PUSH2 0x184 JUMPI PUSH2 0x29A PUSH2 0xE74 CALLDATASIZE PUSH2 0x11D3 JUMP JUMPDEST SWAP2 PUSH2 0xE82 PUSH2 0x5CD DUP5 CALLER PUSH2 0x1893 JUMP JUMPDEST PUSH2 0x195B JUMP JUMPDEST POP POP CALLVALUE PUSH2 0x184 JUMPI DUP2 PUSH1 0x3 NOT CALLDATASIZE ADD SLT PUSH2 0x184 JUMPI PUSH1 0x20 SWAP1 PUSH1 0x9 SLOAD SWAP1 MLOAD SWAP1 DUP2 MSTORE RETURN JUMPDEST SWAP1 POP CALLVALUE PUSH2 0x29D JUMPI DUP2 PUSH1 0x3 NOT CALLDATASIZE ADD SLT PUSH2 0x29D JUMPI PUSH2 0xEC0 PUSH2 0x11A2 JUMP JUMPDEST PUSH1 0x24 CALLDATALOAD SWAP2 PUSH1 0x1 PUSH1 0x1 PUSH1 0xA0 SHL SUB SWAP1 DUP2 DUP1 PUSH2 0xED8 DUP7 PUSH2 0x175A JUMP JUMPDEST AND SWAP4 AND SWAP3 DUP1 DUP5 EQ PUSH2 0xFC8 JUMPI DUP1 CALLER EQ SWAP1 DUP2 ISZERO PUSH2 0xFA9 JUMPI JUMPDEST POP ISZERO PUSH2 0xF40 JUMPI DUP4 DUP7 MSTORE PUSH1 0x20 MSTORE DUP4 DUP6 KECCAK256 DUP1 SLOAD PUSH1 0x1 PUSH1 0x1 PUSH1 0xA0 SHL SUB NOT AND DUP4 OR SWAP1 SSTORE PUSH2 0xF16 DUP4 PUSH2 0x175A JUMP JUMPDEST AND SWAP3 MLOAD SWAP3 PUSH32 0x8C5BE1E5EBEC7D5BD14F71427D1E84F3DD0314C0F7B2291E5B200AC8C7C3B925 DUP6 DUP6 LOG4 RETURN JUMPDEST PUSH1 0x84 SWAP1 PUSH1 0x20 DUP7 MLOAD SWAP2 PUSH3 0x461BCD PUSH1 0xE5 SHL DUP4 MSTORE DUP3 ADD MSTORE PUSH1 0x3D PUSH1 0x24 DUP3 ADD MSTORE PUSH32 0x4552433732313A20617070726F76652063616C6C6572206973206E6F7420746F PUSH1 0x44 DUP3 ADD MSTORE PUSH32 0x6B656E206F776E6572206F7220617070726F76656420666F7220616C6C000000 PUSH1 0x64 DUP3 ADD MSTORE REVERT JUMPDEST SWAP1 POP DUP7 MSTORE PUSH1 0x5 PUSH1 0x20 MSTORE DUP5 DUP7 KECCAK256 CALLER DUP8 MSTORE PUSH1 0x20 MSTORE PUSH1 0xFF DUP6 DUP8 KECCAK256 SLOAD AND CODESIZE PUSH2 0xEEE JUMP JUMPDEST DUP6 MLOAD PUSH3 0x461BCD PUSH1 0xE5 SHL DUP2 MSTORE PUSH1 0x20 DUP2 DUP5 ADD MSTORE PUSH1 0x21 PUSH1 0x24 DUP3 ADD MSTORE PUSH32 0x4552433732313A20617070726F76616C20746F2063757272656E74206F776E65 PUSH1 0x44 DUP3 ADD MSTORE PUSH1 0x39 PUSH1 0xF9 SHL PUSH1 0x64 DUP3 ADD MSTORE PUSH1 0x84 SWAP1 REVERT JUMPDEST DUP3 DUP5 CALLVALUE PUSH2 0x55D JUMPI PUSH1 0x20 CALLDATASIZE PUSH1 0x3 NOT ADD SLT PUSH2 0x55D JUMPI POP PUSH2 0x9DA PUSH1 0x20 SWAP3 CALLDATALOAD PUSH2 0x1780 JUMP JUMPDEST POP POP CALLVALUE PUSH2 0x184 JUMPI DUP2 PUSH1 0x3 NOT CALLDATASIZE ADD SLT PUSH2 0x184 JUMPI DUP1 MLOAD SWAP1 DUP3 DUP1 SLOAD PUSH2 0x1056 DUP2 PUSH2 0x12AF JUMP JUMPDEST DUP1 DUP6 MSTORE SWAP2 PUSH1 0x1 SWAP2 DUP1 DUP4 AND SWAP1 DUP2 ISZERO PUSH2 0x236 JUMPI POP PUSH1 0x1 EQ PUSH2 0x1081 JUMPI POP POP POP PUSH2 0x1D5 DUP3 PUSH2 0x1E7 SWAP5 SUB DUP4 PUSH2 0x123A JUMP JUMPDEST DUP1 DUP1 SWAP7 POP MSTORE PUSH32 0x290DECD9548B62A8D60345A988386FC84BA6BC95484008F6362F93160EF3E563 JUMPDEST DUP3 DUP7 LT PUSH2 0x10C5 JUMPI POP POP POP PUSH2 0x1D5 DUP3 PUSH1 0x20 PUSH2 0x1E7 SWAP6 DUP3 ADD ADD SWAP5 PUSH2 0x1C3 JUMP JUMPDEST DUP1 SLOAD PUSH1 0x20 DUP8 DUP8 ADD DUP2 ADD SWAP2 SWAP1 SWAP2 MSTORE SWAP1 SWAP6 ADD SWAP5 DUP2 ADD PUSH2 0x10A8 JUMP JUMPDEST DUP5 SWAP2 CALLVALUE PUSH2 0x29D JUMPI PUSH1 0x20 CALLDATASIZE PUSH1 0x3 NOT ADD SLT PUSH2 0x29D JUMPI CALLDATALOAD PUSH4 0xFFFFFFFF PUSH1 0xE0 SHL DUP2 AND DUP1 SWAP2 SUB PUSH2 0x29D JUMPI PUSH1 0x20 SWAP3 POP PUSH4 0x80AC58CD PUSH1 0xE0 SHL DUP2 EQ SWAP1 DUP2 ISZERO PUSH2 0x1137 JUMPI JUMPDEST DUP2 ISZERO PUSH2 0x1126 JUMPI JUMPDEST POP ISZERO ISZERO DUP2 MSTORE RETURN JUMPDEST PUSH4 0x1FFC9A7 PUSH1 0xE0 SHL EQ SWAP1 POP DUP4 PUSH2 0x111F JUMP JUMPDEST PUSH4 0x5B5E139F PUSH1 0xE0 SHL DUP2 EQ SWAP2 POP PUSH2 0x1118 JUMP JUMPDEST SWAP2 DUP1 SWAP2 SWAP3 PUSH1 0x0 SWAP1 JUMPDEST DUP3 DUP3 LT PUSH2 0x1168 JUMPI POP GT PUSH2 0x1161 JUMPI POP POP JUMP JUMPDEST PUSH1 0x0 SWAP2 ADD MSTORE JUMP JUMPDEST SWAP2 POP DUP1 PUSH1 0x20 SWAP2 DUP4 ADD MLOAD DUP2 DUP7 ADD MSTORE ADD DUP3 SWAP2 PUSH2 0x1150 JUMP JUMPDEST SWAP1 PUSH1 0x20 SWAP2 PUSH2 0x1196 DUP2 MLOAD DUP1 SWAP3 DUP2 DUP6 MSTORE DUP6 DUP1 DUP7 ADD SWAP2 ADD PUSH2 0x1148 JUMP JUMPDEST PUSH1 0x1F ADD PUSH1 0x1F NOT AND ADD ADD SWAP1 JUMP JUMPDEST PUSH1 0x4 CALLDATALOAD SWAP1 PUSH1 0x1 PUSH1 0x1 PUSH1 0xA0 SHL SUB DUP3 AND DUP3 SUB PUSH2 0x11B8 JUMPI JUMP JUMPDEST PUSH1 0x0 DUP1 REVERT JUMPDEST PUSH1 0x24 CALLDATALOAD SWAP1 PUSH1 0x1 PUSH1 0x1 PUSH1 0xA0 SHL SUB DUP3 AND DUP3 SUB PUSH2 0x11B8 JUMPI JUMP JUMPDEST PUSH1 0x60 SWAP1 PUSH1 0x3 NOT ADD SLT PUSH2 0x11B8 JUMPI PUSH1 0x1 PUSH1 0x1 PUSH1 0xA0 SHL SUB SWAP1 PUSH1 0x4 CALLDATALOAD DUP3 DUP2 AND DUP2 SUB PUSH2 0x11B8 JUMPI SWAP2 PUSH1 0x24 CALLDATALOAD SWAP1 DUP2 AND DUP2 SUB PUSH2 0x11B8 JUMPI SWAP1 PUSH1 0x44 CALLDATALOAD SWAP1 JUMP JUMPDEST PUSH1 0x20 DUP2 ADD SWAP1 DUP2 LT PUSH8 0xFFFFFFFFFFFFFFFF DUP3 GT OR PUSH2 0x1224 JUMPI PUSH1 0x40 MSTORE JUMP JUMPDEST PUSH4 0x4E487B71 PUSH1 0xE0 SHL PUSH1 0x0 MSTORE PUSH1 0x41 PUSH1 0x4 MSTORE PUSH1 0x24 PUSH1 0x0 REVERT JUMPDEST SWAP1 PUSH1 0x1F DUP1 NOT SWAP2 ADD AND DUP2 ADD SWAP1 DUP2 LT PUSH8 0xFFFFFFFFFFFFFFFF DUP3 GT OR PUSH2 0x1224 JUMPI PUSH1 0x40 MSTORE JUMP JUMPDEST PUSH8 0xFFFFFFFFFFFFFFFF DUP2 GT PUSH2 0x1224 JUMPI PUSH1 0x1F ADD PUSH1 0x1F NOT AND PUSH1 0x20 ADD SWAP1 JUMP JUMPDEST SWAP3 SWAP2 SWAP3 PUSH2 0x1284 DUP3 PUSH2 0x125C JUMP JUMPDEST SWAP2 PUSH2 0x1292 PUSH1 0x40 MLOAD SWAP4 DUP5 PUSH2 0x123A JUMP JUMPDEST DUP3 SWAP5 DUP2 DUP5 MSTORE DUP2 DUP4 ADD GT PUSH2 0x11B8 JUMPI DUP3 DUP2 PUSH1 0x20 SWAP4 DUP5 PUSH1 0x0 SWAP7 ADD CALLDATACOPY ADD ADD MSTORE JUMP JUMPDEST SWAP1 PUSH1 0x1 DUP3 DUP2 SHR SWAP3 AND DUP1 ISZERO PUSH2 0x12DF JUMPI JUMPDEST PUSH1 0x20 DUP4 LT EQ PUSH2 0x12C9 JUMPI JUMP JUMPDEST PUSH4 0x4E487B71 PUSH1 0xE0 SHL PUSH1 0x0 MSTORE PUSH1 0x22 PUSH1 0x4 MSTORE PUSH1 0x24 PUSH1 0x0 REVERT JUMPDEST SWAP2 PUSH1 0x7F AND SWAP2 PUSH2 0x12BE JUMP JUMPDEST PUSH1 0x0 SWAP1 DUP1 DUP3 MSTORE PUSH1 0x20 SWAP1 PUSH1 0x6 DUP3 MSTORE PUSH1 0x40 SWAP3 DUP4 DUP2 KECCAK256 CALLER DUP3 MSTORE DUP4 MSTORE PUSH1 0xFF DUP5 DUP3 KECCAK256 SLOAD AND ISZERO PUSH2 0x1313 JUMPI POP POP POP POP JUMP JUMPDEST DUP4 MLOAD SWAP2 PUSH8 0xFFFFFFFFFFFFFFFF SWAP1 CALLER PUSH1 0x60 DUP6 ADD DUP4 DUP2 GT DUP7 DUP3 LT OR PUSH2 0x160B JUMPI DUP8 MSTORE PUSH1 0x2A DUP6 MSTORE DUP6 DUP6 ADD SWAP2 DUP8 CALLDATASIZE DUP5 CALLDATACOPY DUP6 MLOAD ISZERO PUSH2 0x15F7 JUMPI PUSH1 0x30 DUP4 MSTORE8 DUP6 MLOAD SWAP2 PUSH1 0x1 SWAP3 DUP4 LT ISZERO PUSH2 0x15E3 JUMPI PUSH1 0x78 PUSH1 0x21 DUP9 ADD MSTORE8 PUSH1 0x29 JUMPDEST DUP4 DUP2 GT PUSH2 0x1579 JUMPI POP PUSH2 0x1537 JUMPI SWAP1 DUP8 MLOAD SWAP4 PUSH1 0x80 DUP6 ADD SWAP1 DUP6 DUP3 LT SWAP1 DUP3 GT OR PUSH2 0x1523 JUMPI DUP9 MSTORE PUSH1 0x42 DUP5 MSTORE DUP7 DUP5 ADD SWAP5 PUSH1 0x60 CALLDATASIZE DUP8 CALLDATACOPY DUP5 MLOAD ISZERO PUSH2 0x150F JUMPI PUSH1 0x30 DUP7 MSTORE8 DUP5 MLOAD DUP3 LT ISZERO PUSH2 0x150F JUMPI SWAP1 PUSH1 0x78 PUSH1 0x21 DUP7 ADD MSTORE8 PUSH1 0x41 SWAP2 JUMPDEST DUP2 DUP4 GT PUSH2 0x14A1 JUMPI POP POP POP PUSH2 0x145F JUMPI PUSH2 0x145B SWAP4 DUP7 SWAP4 PUSH2 0x143F SWAP4 PUSH2 0x1430 PUSH1 0x48 SWAP5 PUSH2 0x1407 SWAP11 MLOAD SWAP11 DUP12 SWAP6 PUSH32 0x416363657373436F6E74726F6C3A206163636F756E7420000000000000000000 DUP13 DUP9 ADD MSTORE MLOAD DUP1 SWAP3 PUSH1 0x37 DUP9 ADD SWAP1 PUSH2 0x1148 JUMP JUMPDEST DUP5 ADD SWAP2 PUSH17 0x1034B99036B4B9B9B4B733903937B6329 PUSH1 0x7D SHL PUSH1 0x37 DUP5 ADD MSTORE MLOAD DUP1 SWAP4 DUP7 DUP5 ADD SWAP1 PUSH2 0x1148 JUMP JUMPDEST ADD SUB PUSH1 0x28 DUP2 ADD DUP8 MSTORE ADD DUP6 PUSH2 0x123A JUMP JUMPDEST MLOAD SWAP3 DUP4 SWAP3 PUSH3 0x461BCD PUSH1 0xE5 SHL DUP5 MSTORE PUSH1 0x4 DUP5 ADD MSTORE PUSH1 0x24 DUP4 ADD SWAP1 PUSH2 0x117D JUMP JUMPDEST SUB SWAP1 REVERT JUMPDEST PUSH1 0x64 DUP6 DUP8 MLOAD SWAP1 PUSH3 0x461BCD PUSH1 0xE5 SHL DUP3 MSTORE DUP1 PUSH1 0x4 DUP4 ADD MSTORE PUSH1 0x24 DUP3 ADD MSTORE PUSH32 0x537472696E67733A20686578206C656E67746820696E73756666696369656E74 PUSH1 0x44 DUP3 ADD MSTORE REVERT JUMPDEST SWAP1 SWAP2 SWAP3 PUSH1 0xF DUP2 AND PUSH1 0x10 DUP2 LT ISZERO PUSH2 0x14FB JUMPI PUSH16 0x181899199A1A9B1B9C1CB0B131B232B3 PUSH1 0x81 SHL SWAP1 BYTE PUSH2 0x14D1 DUP6 DUP9 PUSH2 0x1D98 JUMP JUMPDEST MSTORE8 PUSH1 0x4 SHR SWAP3 DUP1 ISZERO PUSH2 0x14E7 JUMPI PUSH1 0x0 NOT ADD SWAP2 SWAP1 PUSH2 0x13AF JUMP JUMPDEST PUSH4 0x4E487B71 PUSH1 0xE0 SHL DUP3 MSTORE PUSH1 0x11 PUSH1 0x4 MSTORE PUSH1 0x24 DUP3 REVERT JUMPDEST PUSH4 0x4E487B71 PUSH1 0xE0 SHL DUP4 MSTORE PUSH1 0x32 PUSH1 0x4 MSTORE PUSH1 0x24 DUP4 REVERT JUMPDEST PUSH4 0x4E487B71 PUSH1 0xE0 SHL DUP2 MSTORE PUSH1 0x32 PUSH1 0x4 MSTORE PUSH1 0x24 SWAP1 REVERT JUMPDEST PUSH4 0x4E487B71 PUSH1 0xE0 SHL DUP7 MSTORE PUSH1 0x41 PUSH1 0x4 MSTORE PUSH1 0x24 DUP7 REVERT JUMPDEST PUSH1 0x64 DUP8 DUP10 MLOAD SWAP1 PUSH3 0x461BCD PUSH1 0xE5 SHL DUP3 MSTORE DUP1 PUSH1 0x4 DUP4 ADD MSTORE PUSH1 0x24 DUP3 ADD MSTORE PUSH32 0x537472696E67733A20686578206C656E67746820696E73756666696369656E74 PUSH1 0x44 DUP3 ADD MSTORE REVERT JUMPDEST SWAP1 PUSH1 0xF DUP2 AND PUSH1 0x10 DUP2 LT ISZERO PUSH2 0x15CF JUMPI PUSH16 0x181899199A1A9B1B9C1CB0B131B232B3 PUSH1 0x81 SHL SWAP1 BYTE PUSH2 0x15A7 DUP4 DUP11 PUSH2 0x1D98 JUMP JUMPDEST MSTORE8 PUSH1 0x4 SHR SWAP1 DUP1 ISZERO PUSH2 0x15BB JUMPI PUSH1 0x0 NOT ADD PUSH2 0x1360 JUMP JUMPDEST PUSH4 0x4E487B71 PUSH1 0xE0 SHL DUP8 MSTORE PUSH1 0x11 PUSH1 0x4 MSTORE PUSH1 0x24 DUP8 REVERT JUMPDEST PUSH4 0x4E487B71 PUSH1 0xE0 SHL DUP9 MSTORE PUSH1 0x32 PUSH1 0x4 MSTORE PUSH1 0x24 DUP9 REVERT JUMPDEST PUSH4 0x4E487B71 PUSH1 0xE0 SHL DUP7 MSTORE PUSH1 0x32 PUSH1 0x4 MSTORE PUSH1 0x24 DUP7 REVERT JUMPDEST PUSH4 0x4E487B71 PUSH1 0xE0 SHL DUP6 MSTORE PUSH1 0x32 PUSH1 0x4 MSTORE PUSH1 0x24 DUP6 REVERT JUMPDEST PUSH4 0x4E487B71 PUSH1 0xE0 SHL DUP6 MSTORE PUSH1 0x41 PUSH1 0x4 MSTORE PUSH1 0x24 DUP6 REVERT JUMPDEST SWAP1 PUSH1 0x0 SWAP2 DUP1 DUP4 MSTORE PUSH1 0x6 PUSH1 0x20 MSTORE PUSH1 0x40 DUP4 KECCAK256 SWAP2 PUSH1 0x1 DUP1 PUSH1 0xA0 SHL SUB AND SWAP2 DUP3 DUP5 MSTORE PUSH1 0x20 MSTORE PUSH1 0xFF PUSH1 0x40 DUP5 KECCAK256 SLOAD AND PUSH2 0x1650 JUMPI POP POP POP JUMP JUMPDEST DUP1 DUP4 MSTORE PUSH1 0x6 PUSH1 0x20 MSTORE PUSH1 0x40 DUP4 KECCAK256 DUP3 DUP5 MSTORE PUSH1 0x20 MSTORE PUSH1 0x40 DUP4 KECCAK256 PUSH1 0xFF NOT DUP2 SLOAD AND SWAP1 SSTORE PUSH32 0xF6391F5C32D9C69D2A47EA670B442974B53935D1EDC7FD64EB21E047A839171B CALLER SWAP4 PUSH1 0x40 MLOAD LOG4 JUMP JUMPDEST PUSH1 0x1 PUSH1 0x1 PUSH1 0xA0 SHL SUB AND DUP1 ISZERO PUSH2 0x16B7 JUMPI PUSH1 0x0 MSTORE PUSH1 0x3 PUSH1 0x20 MSTORE PUSH1 0x40 PUSH1 0x0 KECCAK256 SLOAD SWAP1 JUMP JUMPDEST PUSH1 0x40 MLOAD PUSH3 0x461BCD PUSH1 0xE5 SHL DUP2 MSTORE PUSH1 0x20 PUSH1 0x4 DUP3 ADD MSTORE PUSH1 0x29 PUSH1 0x24 DUP3 ADD MSTORE PUSH32 0x4552433732313A2061646472657373207A65726F206973206E6F742061207661 PUSH1 0x44 DUP3 ADD MSTORE PUSH9 0x3634B21037BBB732B9 PUSH1 0xB9 SHL PUSH1 0x64 DUP3 ADD MSTORE PUSH1 0x84 SWAP1 REVERT JUMPDEST ISZERO PUSH2 0x1715 JUMPI JUMP JUMPDEST PUSH1 0x40 MLOAD PUSH3 0x461BCD PUSH1 0xE5 SHL DUP2 MSTORE PUSH1 0x20 PUSH1 0x4 DUP3 ADD MSTORE PUSH1 0x18 PUSH1 0x24 DUP3 ADD MSTORE PUSH32 0x4552433732313A20696E76616C696420746F6B656E2049440000000000000000 PUSH1 0x44 DUP3 ADD MSTORE PUSH1 0x64 SWAP1 REVERT JUMPDEST PUSH1 0x0 SWAP1 DUP2 MSTORE PUSH1 0x2 PUSH1 0x20 MSTORE PUSH1 0x40 SWAP1 KECCAK256 SLOAD PUSH1 0x1 PUSH1 0x1 PUSH1 0xA0 SHL SUB AND PUSH2 0x177D DUP2 ISZERO ISZERO PUSH2 0x170E JUMP JUMPDEST SWAP1 JUMP JUMPDEST PUSH1 0x0 DUP2 DUP2 MSTORE PUSH1 0x2 PUSH1 0x20 MSTORE PUSH1 0x40 SWAP1 KECCAK256 SLOAD PUSH2 0x17A3 SWAP1 PUSH1 0x1 PUSH1 0x1 PUSH1 0xA0 SHL SUB AND ISZERO ISZERO PUSH2 0x170E JUMP JUMPDEST PUSH1 0x0 SWAP1 DUP2 MSTORE PUSH1 0x4 PUSH1 0x20 MSTORE PUSH1 0x40 SWAP1 KECCAK256 SLOAD PUSH1 0x1 PUSH1 0x1 PUSH1 0xA0 SHL SUB AND SWAP1 JUMP JUMPDEST ISZERO PUSH2 0x17C5 JUMPI JUMP JUMPDEST PUSH1 0x40 MLOAD PUSH3 0x461BCD PUSH1 0xE5 SHL DUP2 MSTORE PUSH1 0x20 PUSH1 0x4 DUP3 ADD MSTORE PUSH1 0x2D PUSH1 0x24 DUP3 ADD MSTORE PUSH32 0x4552433732313A2063616C6C6572206973206E6F7420746F6B656E206F776E65 PUSH1 0x44 DUP3 ADD MSTORE PUSH13 0x1C881BDC88185C1C1C9BDD9959 PUSH1 0x9A SHL PUSH1 0x64 DUP3 ADD MSTORE PUSH1 0x84 SWAP1 REVERT JUMPDEST PUSH1 0x80 SWAP1 PUSH1 0x20 DUP2 MSTORE PUSH1 0x32 PUSH1 0x20 DUP3 ADD MSTORE PUSH32 0x4552433732313A207472616E7366657220746F206E6F6E204552433732315265 PUSH1 0x40 DUP3 ADD MSTORE PUSH18 0x31B2B4BB32B91034B6B83632B6B2B73A32B9 PUSH1 0x71 SHL PUSH1 0x60 DUP3 ADD MSTORE ADD SWAP1 JUMP JUMPDEST ISZERO PUSH2 0x187A JUMPI JUMP JUMPDEST PUSH1 0x40 MLOAD PUSH3 0x461BCD PUSH1 0xE5 SHL DUP2 MSTORE DUP1 PUSH2 0x145B PUSH1 0x4 DUP3 ADD PUSH2 0x1820 JUMP JUMPDEST SWAP1 PUSH1 0x1 PUSH1 0x1 PUSH1 0xA0 SHL SUB DUP1 DUP1 PUSH2 0x18A7 DUP5 PUSH2 0x175A JUMP JUMPDEST AND SWAP4 AND SWAP2 DUP4 DUP4 EQ SWAP4 DUP5 ISZERO PUSH2 0x18DA JUMPI JUMPDEST POP DUP4 ISZERO PUSH2 0x18C4 JUMPI JUMPDEST POP POP POP SWAP1 JUMP JUMPDEST PUSH2 0x18D0 SWAP2 SWAP3 SWAP4 POP PUSH2 0x1780 JUMP JUMPDEST AND EQ CODESIZE DUP1 DUP1 PUSH2 0x18BE JUMP JUMPDEST SWAP1 SWAP4 POP PUSH1 0x0 MSTORE PUSH1 0x5 PUSH1 0x20 MSTORE PUSH1 0x40 PUSH1 0x0 KECCAK256 DUP3 PUSH1 0x0 MSTORE PUSH1 0x20 MSTORE PUSH1 0xFF PUSH1 0x40 PUSH1 0x0 KECCAK256 SLOAD AND SWAP3 CODESIZE PUSH2 0x18B6 JUMP JUMPDEST ISZERO PUSH2 0x1908 JUMPI JUMP JUMPDEST PUSH1 0x40 MLOAD PUSH3 0x461BCD PUSH1 0xE5 SHL DUP2 MSTORE PUSH1 0x20 PUSH1 0x4 DUP3 ADD MSTORE PUSH1 0x25 PUSH1 0x24 DUP3 ADD MSTORE PUSH32 0x4552433732313A207472616E736665722066726F6D20696E636F727265637420 PUSH1 0x44 DUP3 ADD MSTORE PUSH5 0x37BBB732B9 PUSH1 0xD9 SHL PUSH1 0x64 DUP3 ADD MSTORE PUSH1 0x84 SWAP1 REVERT JUMPDEST PUSH2 0x197F SWAP2 PUSH2 0x1968 DUP5 PUSH2 0x175A JUMP JUMPDEST PUSH1 0x1 PUSH1 0x1 PUSH1 0xA0 SHL SUB SWAP4 DUP5 DUP5 AND SWAP4 SWAP2 DUP6 AND DUP5 EQ PUSH2 0x1901 JUMP JUMPDEST DUP4 DUP3 AND SWAP4 DUP5 ISZERO PUSH2 0x1B53 JUMPI DUP4 SWAP2 DUP3 PUSH2 0x1A9A JUMPI POP SWAP1 POP PUSH1 0x9 SLOAD SWAP1 DUP6 PUSH1 0x0 MSTORE PUSH1 0xA PUSH1 0x20 MSTORE DUP2 PUSH1 0x40 PUSH1 0x0 KECCAK256 SSTORE PUSH1 0x1 PUSH1 0x40 SHL DUP3 LT ISZERO PUSH2 0x1224 JUMPI PUSH2 0x19E5 SWAP3 PUSH2 0x19CC DUP8 PUSH2 0x870 DUP6 PUSH1 0x1 DUP10 SWAP8 ADD PUSH1 0x9 SSTORE PUSH2 0x1D4B JUMP JUMPDEST DUP3 DUP7 SUB PUSH2 0x1A67 JUMPI JUMPDEST POP PUSH2 0x19DE DUP7 PUSH2 0x175A JUMP JUMPDEST AND EQ PUSH2 0x1901 JUMP JUMPDEST PUSH32 0xDDF252AD1BE2C89B69C2B068FC378DAA952BA7F163C4A11628F55A4DF523B3EF PUSH1 0x0 DUP5 DUP2 MSTORE PUSH1 0x4 PUSH1 0x20 MSTORE PUSH1 0x40 DUP2 KECCAK256 PUSH12 0xFFFFFFFFFFFFFFFFFFFFFFFF PUSH1 0xA0 SHL SWAP1 DUP2 DUP2 SLOAD AND SWAP1 SSTORE DUP4 DUP3 MSTORE PUSH1 0x3 PUSH1 0x20 MSTORE PUSH1 0x40 DUP3 KECCAK256 PUSH1 0x0 NOT DUP2 SLOAD ADD SWAP1 SSTORE DUP5 DUP3 MSTORE PUSH1 0x40 DUP3 KECCAK256 PUSH1 0x1 DUP2 SLOAD ADD SWAP1 SSTORE DUP6 DUP3 MSTORE PUSH1 0x2 PUSH1 0x20 MSTORE DUP5 PUSH1 0x40 DUP4 KECCAK256 SWAP2 DUP3 SLOAD AND OR SWAP1 SSTORE PUSH1 0x40 MLOAD LOG4 JUMP JUMPDEST PUSH2 0x1A70 SWAP1 PUSH2 0x1697 JUMP JUMPDEST PUSH1 0x40 PUSH1 0x0 DUP8 DUP2 MSTORE PUSH1 0x7 PUSH1 0x20 MSTORE DUP2 DUP2 KECCAK256 DUP4 DUP3 MSTORE PUSH1 0x20 MSTORE DUP9 DUP3 DUP3 KECCAK256 SSTORE DUP9 DUP2 MSTORE PUSH1 0x8 PUSH1 0x20 MSTORE KECCAK256 SSTORE CODESIZE PUSH2 0x19D4 JUMP JUMPDEST DUP6 DUP4 SUB PUSH2 0x1AAC JUMPI JUMPDEST POP PUSH2 0x19E5 SWAP3 PUSH2 0x19CC JUMP JUMPDEST PUSH2 0x1AB7 SWAP2 SWAP3 POP PUSH2 0x1697 JUMP JUMPDEST SWAP1 PUSH1 0x1 DUP3 LT PUSH2 0x1B3D JUMPI PUSH2 0x19E5 SWAP3 DUP5 SWAP3 PUSH1 0x0 NOT ADD PUSH1 0x0 SWAP1 DUP9 DUP3 MSTORE PUSH1 0x20 SWAP1 PUSH1 0x8 DUP3 MSTORE PUSH1 0x40 SWAP2 DUP3 DUP5 KECCAK256 SLOAD DUP3 DUP2 SUB PUSH2 0x1B06 JUMPI JUMPDEST POP DUP11 DUP5 MSTORE DUP4 DUP4 DUP2 KECCAK256 SSTORE DUP7 DUP5 MSTORE PUSH1 0x7 DUP2 MSTORE DUP3 DUP5 KECCAK256 SWAP2 DUP5 MSTORE MSTORE DUP2 KECCAK256 SSTORE SWAP3 PUSH2 0x1AA2 JUMP JUMPDEST DUP8 DUP6 MSTORE PUSH1 0x7 DUP3 MSTORE DUP4 DUP6 KECCAK256 DUP4 DUP7 MSTORE DUP3 MSTORE DUP4 DUP6 KECCAK256 SLOAD DUP9 DUP7 MSTORE PUSH1 0x7 DUP4 MSTORE DUP5 DUP7 KECCAK256 DUP3 DUP8 MSTORE DUP4 MSTORE DUP1 DUP6 DUP8 KECCAK256 SSTORE DUP6 MSTORE PUSH1 0x8 DUP3 MSTORE DUP4 DUP6 KECCAK256 SSTORE CODESIZE PUSH2 0x1AE6 JUMP JUMPDEST PUSH4 0x4E487B71 PUSH1 0xE0 SHL PUSH1 0x0 MSTORE PUSH1 0x11 PUSH1 0x4 MSTORE PUSH1 0x24 PUSH1 0x0 REVERT JUMPDEST PUSH1 0x40 MLOAD PUSH3 0x461BCD PUSH1 0xE5 SHL DUP2 MSTORE PUSH1 0x20 PUSH1 0x4 DUP3 ADD MSTORE PUSH1 0x24 DUP1 DUP3 ADD MSTORE PUSH32 0x4552433732313A207472616E7366657220746F20746865207A65726F20616464 PUSH1 0x44 DUP3 ADD MSTORE PUSH4 0x72657373 PUSH1 0xE0 SHL PUSH1 0x64 DUP3 ADD MSTORE PUSH1 0x84 SWAP1 REVERT JUMPDEST SWAP2 SWAP3 PUSH1 0x0 SWAP3 SWAP1 SWAP2 SWAP1 DUP1 EXTCODESIZE ISZERO PUSH2 0x1CB6 JUMPI PUSH2 0x1BF2 SWAP5 PUSH1 0x40 MLOAD DUP1 SWAP3 PUSH4 0xA85BD01 PUSH1 0xE1 SHL SWAP5 DUP6 DUP4 MSTORE CALLER PUSH1 0x4 DUP5 ADD MSTORE DUP8 PUSH1 0x24 DUP5 ADD MSTORE PUSH1 0x44 DUP4 ADD MSTORE PUSH1 0x80 PUSH1 0x64 DUP4 ADD MSTORE DUP2 DUP8 DUP2 PUSH1 0x20 SWAP11 DUP12 SWAP7 PUSH1 0x84 DUP4 ADD SWAP1 PUSH2 0x117D JUMP JUMPDEST SUB SWAP3 PUSH1 0x1 PUSH1 0x1 PUSH1 0xA0 SHL SUB AND GAS CALL DUP5 SWAP2 DUP2 PUSH2 0x1C76 JUMPI JUMPDEST POP PUSH2 0x1C65 JUMPI POP POP POP RETURNDATASIZE PUSH1 0x0 EQ PUSH2 0x1C5D JUMPI RETURNDATASIZE PUSH2 0x1C21 DUP2 PUSH2 0x125C JUMP JUMPDEST SWAP1 PUSH2 0x1C2F PUSH1 0x40 MLOAD SWAP3 DUP4 PUSH2 0x123A JUMP JUMPDEST DUP2 MSTORE DUP1 SWAP2 DUP4 RETURNDATASIZE SWAP3 ADD RETURNDATACOPY JUMPDEST DUP1 MLOAD SWAP2 DUP3 PUSH2 0x1C5A JUMPI PUSH1 0x40 MLOAD PUSH3 0x461BCD PUSH1 0xE5 SHL DUP2 MSTORE DUP1 PUSH2 0x145B PUSH1 0x4 DUP3 ADD PUSH2 0x1820 JUMP JUMPDEST ADD REVERT JUMPDEST POP PUSH1 0x60 PUSH2 0x1C39 JUMP JUMPDEST PUSH1 0x1 PUSH1 0x1 PUSH1 0xE0 SHL SUB NOT AND EQ SWAP3 POP SWAP1 POP JUMP JUMPDEST SWAP1 SWAP2 POP DUP6 DUP2 DUP2 RETURNDATASIZE DUP4 GT PUSH2 0x1CAF JUMPI JUMPDEST PUSH2 0x1C8E DUP2 DUP4 PUSH2 0x123A JUMP JUMPDEST DUP2 ADD SUB SLT PUSH2 0x6B7 JUMPI MLOAD PUSH1 0x1 PUSH1 0x1 PUSH1 0xE0 SHL SUB NOT DUP2 AND DUP2 SUB PUSH2 0x6B7 JUMPI SWAP1 CODESIZE PUSH2 0x1C07 JUMP JUMPDEST POP RETURNDATASIZE PUSH2 0x1C84 JUMP JUMPDEST POP POP SWAP2 POP POP PUSH1 0x1 SWAP1 JUMP JUMPDEST SWAP3 SWAP4 PUSH1 0x0 SWAP4 SWAP1 SWAP3 SWAP2 DUP1 EXTCODESIZE ISZERO PUSH2 0x1D40 JUMPI SWAP5 DUP5 SWAP2 PUSH2 0x1D1A SWAP7 PUSH1 0x40 MLOAD DUP1 SWAP5 DUP2 SWAP4 PUSH4 0xA85BD01 PUSH1 0xE1 SHL SWAP8 DUP9 DUP5 MSTORE CALLER PUSH1 0x4 DUP6 ADD MSTORE PUSH1 0x1 DUP1 PUSH1 0xA0 SHL SUB DUP1 SWAP3 AND PUSH1 0x24 DUP6 ADD MSTORE PUSH1 0x44 DUP5 ADD MSTORE PUSH1 0x80 PUSH1 0x64 DUP5 ADD MSTORE DUP3 PUSH1 0x20 SWAP12 DUP13 SWAP8 PUSH1 0x84 DUP4 ADD SWAP1 PUSH2 0x117D JUMP JUMPDEST SUB SWAP4 AND GAS CALL DUP5 SWAP2 DUP2 PUSH2 0x1C76 JUMPI POP PUSH2 0x1C65 JUMPI POP POP POP RETURNDATASIZE PUSH1 0x0 EQ PUSH2 0x1C5D JUMPI RETURNDATASIZE PUSH2 0x1C21 DUP2 PUSH2 0x125C JUMP JUMPDEST POP POP POP SWAP2 POP POP PUSH1 0x1 SWAP1 JUMP JUMPDEST PUSH1 0x9 SLOAD DUP2 LT ISZERO PUSH2 0x1D82 JUMPI PUSH1 0x9 PUSH1 0x0 MSTORE PUSH32 0x6E1540171B6C0C960B71A7020D9F60077F6AF931A8BBF590DA0223DACF75C7AF ADD SWAP1 PUSH1 0x0 SWAP1 JUMP JUMPDEST PUSH4 0x4E487B71 PUSH1 0xE0 SHL PUSH1 0x0 MSTORE PUSH1 0x32 PUSH1 0x4 MSTORE PUSH1 0x24 PUSH1 0x0 REVERT JUMPDEST SWAP1 DUP2 MLOAD DUP2 LT ISZERO PUSH2 0x1D82 JUMPI ADD PUSH1 0x20 ADD SWAP1 JUMP JUMPDEST ISZERO PUSH2 0x1DB0 JUMPI JUMP JUMPDEST PUSH1 0x40 MLOAD PUSH3 0x461BCD PUSH1 0xE5 SHL DUP2 MSTORE PUSH1 0x20 PUSH1 0x4 DUP3 ADD MSTORE PUSH1 0x1C PUSH1 0x24 DUP3 ADD MSTORE PUSH32 0x4552433732313A20746F6B656E20616C7265616479206D696E74656400000000 PUSH1 0x44 DUP3 ADD MSTORE PUSH1 0x64 SWAP1 REVERT INVALID 0xDF PUSH10 0x66C971051C3D54EC5916 0x26 MOD MSTORE8 EQ SWAP4 0xA5 EQ DIV LOG0 MUL DUP5 0x2F JUMP STOP SWAP14 PUSH31 0x5CF4A8C7A264697066735822122039D7F6D88FE6C5221544F6F422686A2410 PUSH3 0x7C84B9 SWAP5 SWAP13 0x23 0xB0 0xCC 0xAD LOG0 0x29 PUSH23 0x96A64736F6C634300080F003300000000000000000000 "},"methodIdentifiers":{"DEFAULT_ADMIN_ROLE()":"a217fddf","approve(address,uint256)":"095ea7b3","balanceOf(address)":"70a08231","baseTokenURI()":"d547cfb7","getApproved(uint256)":"081812fc","getRoleAdmin(bytes32)":"248a9ca3","grantRole(bytes32,address)":"2f2ff15d","hasRole(bytes32,address)":"91d14854","isApprovedForAll(address,address)":"e985e9c5","mintTo(address)":"755edd17","name()":"06fdde03","ownerOf(uint256)":"6352211e","renounceRole(bytes32,address)":"36568abe","revokeRole(bytes32,address)":"d547741f","safeTransferFrom(address,address,uint256)":"42842e0e","safeTransferFrom(address,address,uint256,bytes)":"b88d4fde","setApprovalForAll(address,bool)":"a22cb465","setBaseTokenURI(string)":"30176e13","supportsInterface(bytes4)":"01ffc9a7","symbol()":"95d89b41","tokenByIndex(uint256)":"4f6ccce7","tokenOfOwnerByIndex(address,uint256)":"2f745c59","tokenURI(uint256)":"c87b56dd","totalSupply()":"18160ddd","transferFrom(address,address,uint256)":"23b872dd"}}}}}