{
  "_format": "hh-sol-artifact-1",
  "contractName": "NFT",
  "sourceName": "contracts/NFT.sol",
  "abi": [
    {
      "inputs": [],
      "stateMutability": "nonpayable",
      "type": "constructor"
    },
    {
      "anonymous": false,
      "inputs": [
        {
          "indexed": true,
          "internalType": "address",
          "name": "owner",
          "type": "address"
        },
        {
          "indexed": true,
          "internalType": "address",
          "name": "approved",
          "type": "address"
        },
        {
          "indexed": true,
          "internalType": "uint256",
          "name": "tokenId",
          "type": "uint256"
        }
      ],
      "name": "Approval",
      "type": "event"
    },
    {
      "anonymous": false,
      "inputs": [
        {
          "indexed": true,
          "internalType": "address",
          "name": "owner",
          "type": "address"
        },
        {
          "indexed": true,
          "internalType": "address",
          "name": "operator",
          "type": "address"
        },
        {
          "indexed": false,
          "internalType": "bool",
          "name": "approved",
          "type": "bool"
        }
      ],
      "name": "ApprovalForAll",
      "type": "event"
    },
    {
      "anonymous": false,
      "inputs": [
        {
          "indexed": true,
          "internalType": "bytes32",
          "name": "role",
          "type": "bytes32"
        },
        {
          "indexed": true,
          "internalType": "bytes32",
          "name": "previousAdminRole",
          "type": "bytes32"
        },
        {
          "indexed": true,
          "internalType": "bytes32",
          "name": "newAdminRole",
          "type": "bytes32"
        }
      ],
      "name": "RoleAdminChanged",
      "type": "event"
    },
    {
      "anonymous": false,
      "inputs": [
        {
          "indexed": true,
          "internalType": "bytes32",
          "name": "role",
          "type": "bytes32"
        },
        {
          "indexed": true,
          "internalType": "address",
          "name": "account",
          "type": "address"
        },
        {
          "indexed": true,
          "internalType": "address",
          "name": "sender",
          "type": "address"
        }
      ],
      "name": "RoleGranted",
      "type": "event"
    },
    {
      "anonymous": false,
      "inputs": [
        {
          "indexed": true,
          "internalType": "bytes32",
          "name": "role",
          "type": "bytes32"
        },
        {
          "indexed": true,
          "internalType": "address",
          "name": "account",
          "type": "address"
        },
        {
          "indexed": true,
          "internalType": "address",
          "name": "sender",
          "type": "address"
        }
      ],
      "name": "RoleRevoked",
      "type": "event"
    },
    {
      "anonymous": false,
      "inputs": [
        {
          "indexed": true,
          "internalType": "address",
          "name": "from",
          "type": "address"
        },
        {
          "indexed": true,
          "internalType": "address",
          "name": "to",
          "type": "address"
        },
        {
          "indexed": true,
          "internalType": "uint256",
          "name": "tokenId",
          "type": "uint256"
        }
      ],
      "name": "Transfer",
      "type": "event"
    },
    {
      "inputs": [],
      "name": "DEFAULT_ADMIN_ROLE",
      "outputs": [
        {
          "internalType": "bytes32",
          "name": "",
          "type": "bytes32"
        }
      ],
      "stateMutability": "view",
      "type": "function"
    },
    {
      "inputs": [
        {
          "internalType": "address",
          "name": "to",
          "type": "address"
        },
        {
          "internalType": "uint256",
          "name": "tokenId",
          "type": "uint256"
        }
      ],
      "name": "approve",
      "outputs": [],
      "stateMutability": "nonpayable",
      "type": "function"
    },
    {
      "inputs": [
        {
          "internalType": "address",
          "name": "owner",
          "type": "address"
        }
      ],
      "name": "balanceOf",
      "outputs": [
        {
          "internalType": "uint256",
          "name": "",
          "type": "uint256"
        }
      ],
      "stateMutability": "view",
      "type": "function"
    },
    {
      "inputs": [],
      "name": "baseTokenURI",
      "outputs": [
        {
          "internalType": "string",
          "name": "",
          "type": "string"
        }
      ],
      "stateMutability": "view",
      "type": "function"
    },
    {
      "inputs": [
        {
          "internalType": "uint256",
          "name": "tokenId",
          "type": "uint256"
        }
      ],
      "name": "getApproved",
      "outputs": [
        {
          "internalType": "address",
          "name": "",
          "type": "address"
        }
      ],
      "stateMutability": "view",
      "type": "function"
    },
    {
      "inputs": [
        {
          "internalType": "bytes32",
          "name": "role",
          "type": "bytes32"
        }
      ],
      "name": "getRoleAdmin",
      "outputs": [
        {
          "internalType": "bytes32",
          "name": "",
          "type": "bytes32"
        }
      ],
      "stateMutability": "view",
      "type": "function"
    },
    {
      "inputs": [
        {
          "internalType": "bytes32",
          "name": "role",
          "type": "bytes32"
        },
        {
          "internalType": "address",
          "name": "account",
          "type": "address"
        }
      ],
      "name": "grantRole",
      "outputs": [],
      "stateMutability": "nonpayable",
      "type": "function"
    },
    {
      "inputs": [
        {
          "internalType": "bytes32",
          "name": "role",
          "type": "bytes32"
        },
        {
          "internalType": "address",
          "name": "account",
          "type": "address"
        }
      ],
      "name": "hasRole",
      "outputs": [
        {
          "internalType": "bool",
          "name": "",
          "type": "bool"
        }
      ],
      "stateMutability": "view",
      "type": "function"
    },
    {
      "inputs": [
        {
          "internalType": "address",
          "name": "owner",
          "type": "address"
        },
        {
          "internalType": "address",
          "name": "operator",
          "type": "address"
        }
      ],
      "name": "isApprovedForAll",
      "outputs": [
        {
          "internalType": "bool",
          "name": "",
          "type": "bool"
        }
      ],
      "stateMutability": "view",
      "type": "function"
    },
    {
      "inputs": [
        {
          "internalType": "address",
          "name": "recipient",
          "type": "address"
        }
      ],
      "name": "mintTo",
      "outputs": [
        {
          "internalType": "uint256",
          "name": "",
          "type": "uint256"
        }
      ],
      "stateMutability": "nonpayable",
      "type": "function"
    },
    {
      "inputs": [],
      "name": "name",
      "outputs": [
        {
          "internalType": "string",
          "name": "",
          "type": "string"
        }
      ],
      "stateMutability": "view",
      "type": "function"
    },
    {
      "inputs": [
        {
          "internalType": "uint256",
          "name": "tokenId",
          "type": "uint256"
        }
      ],
      "name": "ownerOf",
      "outputs": [
        {
          "internalType": "address",
          "name": "",
          "type": "address"
        }
      ],
      "stateMutability": "view",
      "type": "function"
    },
    {
      "inputs": [
        {
          "internalType": "bytes32",
          "name": "role",
          "type": "bytes32"
        },
        {
          "internalType": "address",
          "name": "account",
          "type": "address"
        }
      ],
      "name": "renounceRole",
      "outputs": [],
      "stateMutability": "nonpayable",
      "type": "function"
    },
    {
      "inputs": [
        {
          "internalType": "bytes32",
          "name": "role",
          "type": "bytes32"
        },
        {
          "internalType": "address",
          "name": "account",
          "type": "address"
        }
      ],
      "name": "revokeRole",
      "outputs": [],
      "stateMutability": "nonpayable",
      "type": "function"
    },
    {
      "inputs": [
        {
          "internalType": "address",
          "name": "from",
          "type": "address"
        },
        {
          "internalType": "address",
          "name": "to",
          "type": "address"
        },
        {
          "internalType": "uint256",
          "name": "tokenId",
          "type": "uint256"
        }
      ],
      "name": "safeTransferFrom",
      "outputs": [],
      "stateMutability": "nonpayable",
      "type": "function"
    },
    {
      "inputs": [
        {
          "internalType": "address",
          "name": "from",
          "type": "address"
        },
        {
          "internalType": "address",
          "name": "to",
          "type": "address"
        },
        {
          "internalType": "uint256",
          "name": "tokenId",
          "type": "uint256"
        },
        {
          "internalType": "bytes",
          "name": "data",
          "type": "bytes"
        }
      ],
      "name": "safeTransferFrom",
      "outputs": [],
      "stateMutability": "nonpayable",
      "type": "function"
    },
    {
      "inputs": [
        {
          "internalType": "address",
          "name": "operator",
          "type": "address"
        },
        {
          "internalType": "bool",
          "name": "approved",
          "type": "bool"
        }
      ],
      "name": "setApprovalForAll",
      "outputs": [],
      "stateMutability": "nonpayable",
      "type": "function"
    },
    {
      "inputs": [
        {
          "internalType": "string",
          "name": "_baseTokenURI",
          "type": "string"
        }
      ],
      "name": "setBaseTokenURI",
      "outputs": [],
      "stateMutability": "nonpayable",
      "type": "function"
    },
    {
      "inputs": [
        {
          "internalType": "bytes4",
          "name": "interfaceId",
          "type": "bytes4"
        }
      ],
      "name": "supportsInterface",
      "outputs": [
        {
          "internalType": "bool",
          "name": "",
          "type": "bool"
        }
      ],
      "stateMutability": "view",
      "type": "function"
    },
    {
      "inputs": [],
      "name": "symbol",
      "outputs": [
        {
          "internalType": "string",
          "name": "",
          "type": "string"
        }
      ],
      "stateMutability": "view",
      "type": "function"
    },
    {
      "inputs": [
        {
          "internalType": "uint256",
          "name": "index",
          "type": "uint256"
        }
      ],
      "name": "tokenByIndex",
      "outputs": [
        {
          "internalType": "uint256",
          "name": "",
          "type": "uint256"
        }
      ],
      "stateMutability": "view",
      "type": "function"
    },
    {
      "inputs": [
        {
          "internalType": "address",
          "name": "owner",
          "type": "address"
        },
        {
          "internalType": "uint256",
          "name": "index",
          "type": "uint256"
        }
      ],
      "name": "tokenOfOwnerByIndex",
      "outputs": [
        {
          "internalType": "uint256",
          "name": "",
          "type": "uint256"
        }
      ],
      "stateMutability": "view",
      "type": "function"
    },
    {
      "inputs": [
        {
          "internalType": "uint256",
          "name": "tokenId",
          "type": "uint256"
        }
      ],
      "name": "tokenURI",
      "outputs": [
        {
          "internalType": "string",
          "name": "",
          "type": "string"
        }
      ],
      "stateMutability": "view",
      "type": "function"
    },
    {
      "inputs": [],
      "name": "totalSupply",
      "outputs": [
        {
          "internalType": "uint256",
          "name": "",
          "type": "uint256"
        }
      ],
      "stateMutability": "view",
      "type": "function"
    },
    {
      "inputs": [
        {
          "internalType": "address",
          "name": "from",
          "type": "address"
        },
        {
          "internalType": "address",
          "name": "to",
          "type": "address"
        },
        {
          "internalType": "uint256",
          "name": "tokenId",
          "type": "uint256"
        }
      ],
      "name": "transferFrom",
      "outputs": [],
      "stateMutability": "nonpayable",
      "type": "function"
    }
  ],
  "bytecode": "0x608034620002c7576040906001600160401b039080830182811182821017620002b157835260088152602090674461707044656d6f60c01b82820152835184810181811085821117620002b1578552600781526611185c1c13919560ca1b83820152815193808511620002b157600094806200007c8754620002cc565b94601f9586811162000281575b508690868311600114620002195788926200020d575b50508160011b916000199060031b1c19161785555b8151908111620001f95780600192620000ce8454620002cc565b858111620001be575b5085908583116001146200015a5787926200014e575b5050600019600383901b1c191690821b1790555b6200010e600c54620002cc565b918183116200012c575b846000600c5551611e4b9081620003238239f35b83600c62000144955220910160051c81019062000309565b3880808062000118565b015190503880620000ed565b8488528688208594509190601f198416895b89828210620001a757505084116200018d575b505050811b01905562000101565b015160001960f88460031b161c191690553880806200017f565b83850151865588979095019493840193016200016c565b620001e8908589528789208780860160051c8201928a8710620001ef575b0160051c019062000309565b38620000d7565b92508192620001dc565b634e487b7160e01b85526041600452602485fd5b0151905038806200009f565b8880528789209250601f198416895b898282106200026a57505090846001959493921062000250575b505050811b018555620000b4565b015160001960f88460031b161c1916905538808062000242565b600185968293968601518155019501930162000228565b620002aa90898052888a208880860160051c8201928b8710620001ef570160051c019062000309565b3862000089565b634e487b7160e01b600052604160045260246000fd5b600080fd5b90600182811c92168015620002fe575b6020831014620002e857565b634e487b7160e01b600052602260045260246000fd5b91607f1691620002dc565b81811062000315575050565b600081556001016200030956fe608060408181526004918236101561001657600080fd5b600092833560e01c91826301ffc9a7146110dd5750816306fdde0314611035578163081812fc14611015578163095ea7b314610ea657816318160ddd14610e8757816323b872dd14610e61578163248a9ca314610e365781632f2ff15d14610d8c5781632f745c5914610ce057816330176e1314610b6d57816336568abe14610adc57816342842e0e14610a7f5781634f6ccce7146109eb5781636352211e146109ba57816370a082311461098d578163755edd17146107c557816391d148541461077e57816395d89b41146106d6578163a217fddf146106bb578163a22cb465146105eb578163b88d4fde14610560578163c87b56dd146102a1578163d547741f1461025e57508063d547cfb7146101885763e985e9c51461013857600080fd5b3461018457806003193601126101845760ff816020936101566111a2565b61015e6111bd565b6001600160a01b0391821683526005875283832091168252855220549151911615158152f35b5080fd5b503461018457816003193601126101845780519082600c546101a9816112af565b8085529160019180831690811561023657506001146101eb575b5050506101d5826101e794038361123a565b5191829160208352602083019061117d565b0390f35b9450600c8552600080516020611df68339815191525b82861061021e575050506101d58260206101e795820101946101c3565b80546020878701810191909152909501948101610201565b6101e79750869350602092506101d594915060ff191682840152151560051b820101946101c3565b90503461029d578160031936011261029d5761029a903561027d6111bd565b908085526006602052610295600185872001546112e9565b61161f565b51f35b8280fd5b83915034610184576020918260031936011261055d57813560008181526002602052604090205484929186916102e1906001600160a01b0316151561170e565b8151948391600c54876102f3826112af565b94858252888201956001938a85821691826000146105405750506001146104f9575b509061032291038961123a565b8751156104da5781809387917a184f03e93ff9f4daa797ed6e38ed64bf6a1f01000000000000000090818110156104cd575b5050886d04ee2d6d415b85acef8100000000808710156104be575b5050662386f26fc10000808610156104af575b506305f5e100808610156104a0575b5061271080861015610494575b50506064841015610486575b60219082600a8096101561047f575b939291906103e08382016103d86103cf8261125c565b9a519a8b61123a565b808a5261125c565b888b019990601f1901368b3750870101905b610449575b50505050936104389261041d949261042c6101e7978a5197889551809288880190611148565b84019151809386840190611148565b0103808452018261123a565b925b5192828493845283019061117d565b600019019083906f181899199a1a9b1b9c1cb0b131b232b360811b8282061a83530491821561047a579190826103f2565b6103f7565b01826103b9565b6064909304926002016103aa565b90940493018b8061039e565b6008919295049401908c610391565b6010919295049401908c610382565b9091929504940190888d61036f565b0494508691508c80610354565b505050509091506101e7925051906104f182611208565b81529261043a565b600c8952889150600080516020611df68339815191525b81831061052557505081018801610322610315565b8054838d018c01528c9a8e99508c9450909201918401610510565b60ff1916895291151560051b840190910191506103229050610315565b80fd5b90503461029d57608036600319011261029d5761057b6111a2565b906105846111bd565b916044356064359367ffffffffffffffff85116105e757366023860112156105e7576105bf6105e29486602461029a98369301359101611278565b926105d26105cd8433611893565b6117be565b6105dd83838361195b565b611cc0565b611873565b8680fd5b90503461029d578160031936011261029d576106056111a2565b602435908115158092036106b7576001600160a01b0316913383146106745750338452600560205282842082855260205282842060ff1981541660ff831617905582519081527f17307eab39ab6107e8899845ad3d59bd9653f200f220920489ca2b5937696c3160203392a351f35b606490602085519162461bcd60e51b8352820152601960248201527f4552433732313a20617070726f766520746f2063616c6c6572000000000000006044820152fd5b8480fd5b50503461018457816003193601126101845751908152602090f35b5050346101845781600319360112610184578051908260018054916106fa836112af565b808652928281169081156102365750600114610722575050506101d5826101e794038361123a565b94508085527fb10e2d527612073b26eecdfd717e6a320cf44b4afac2b0732d9fcbe2b7fa0cf65b828610610766575050506101d58260206101e795820101946101c3565b80546020878701810191909152909501948101610749565b90503461029d578160031936011261029d578160209360ff9261079f6111bd565b90358252600686528282206001600160a01b039091168252855220549151911615158152f35b9190503461029d576020928360031936011261055d576107e36111a2565b6001600b54019384600b558351926107fa84611208565b8084526001600160a01b03831691821561094c57600087815260026020526040902054610833906001600160a01b031615155b15611da9565b60095490878352600a89528187842055600160401b821015610939575092866109339593819361088b836108708960016105e29b01600955611d4b565b90919082549060031b600019811b9283911b16911916179055565b61089484611697565b82825260078c528982208183528c5289822084905583825260088c52898220556000838152600260205260409020546108d7906001600160a01b0316151561082d565b81815260038b528881206001815401905582815260028b52888120826bffffffffffffffffffffffff60a01b8254161790557fddf252ad1be2c89b69c2b068fc378daa952ba7f163c4a11628f55a4df523b3ef818a51a4611ba4565b51908152f35b634e487b7160e01b835260419052602482fd5b606490888088519262461bcd60e51b845283015260248201527f4552433732313a206d696e7420746f20746865207a65726f20616464726573736044820152fd5b505034610184576020366003190112610184576020906109b36109ae6111a2565b611697565b9051908152f35b82843461055d57602036600319011261055d57506109da6020923561175a565b90516001600160a01b039091168152f35b9050823461055d57602036600319011261055d5750803590600954821015610a2757602083610a1984611d4b565b91905490519160031b1c8152f35b608490602084519162461bcd60e51b8352820152602c60248201527f455243373231456e756d657261626c653a20676c6f62616c20696e646578206f60448201526b7574206f6620626f756e647360a01b6064820152fd5b90503461029d57610a8f366111d3565b91845193602085019085821067ffffffffffffffff831117610ac95750916105e2939161029a959387528784526105d26105cd8433611893565b634e487b7160e01b885260419052602487fd5b90503461029d578160031936011261029d57610af66111bd565b90336001600160a01b03831603610b12579061029a913561161f565b608490602084519162461bcd60e51b8352820152602f60248201527f416363657373436f6e74726f6c3a2063616e206f6e6c792072656e6f756e636560448201526e103937b632b9903337b91039b2b63360891b6064820152fd5b8383346101845760208060031936011261029d5767ffffffffffffffff9084358281116106b757366023820112156106b757610bb29036906024818901359101611278565b948551928311610ccd5750610bc8600c546112af565b601f8111610c7d575b5080601f8311600114610c0d5750839482939492610c02575b50508160011b916000199060031b1c191617600c5551f35b015190508480610bea565b600c8552601f19831695600080516020611df6833981519152929186905b888210610c6557505083600195969710610c4c575b505050811b01600c5551f35b015160001960f88460031b161c19169055848080610c40565b80600185968294968601518155019501930190610c2b565b600c8552600080516020611df6833981519152601f840160051c810191838510610cc3575b601f0160051c01905b818110610cb85750610bd1565b858155600101610cab565b9091508190610ca2565b634e487b7160e01b855260419052602484fd5b82843461055d578160031936011261055d57610cfa6111a2565b60243590610d0781611697565b821015610d35576001600160a01b031682526007602090815283832091835290815290829020548251908152f35b835162461bcd60e51b8152602081870152602b60248201527f455243373231456e756d657261626c653a206f776e657220696e646578206f7560448201526a74206f6620626f756e647360a81b6064820152608490fd5b90503461029d578160031936011261029d5735610da76111bd565b8184526006602052610dbe600184862001546112e9565b818452600660209081528385206001600160a01b039092168086529190528284205460ff1615610ded57505051f35b8184526006602052828420818552602052828420600160ff1982541617905533917f2f8788117e7eff1d82e926ec794901d17c78024a50270940304540a733656f0d858551a451f35b90503461029d57602036600319011261029d5781602093600192358152600685522001549051908152f35b5050346101845761029a610e74366111d3565b91610e826105cd8433611893565b61195b565b5050346101845781600319360112610184576020906009549051908152f35b90503461029d578160031936011261029d57610ec06111a2565b602435916001600160a01b03908180610ed88661175a565b16931692808414610fc857803314908115610fa9575b5015610f405783865260205283852080546001600160a01b03191683179055610f168361175a565b169251927f8c5be1e5ebec7d5bd14f71427d1e84f3dd0314c0f7b2291e5b200ac8c7c3b9258585a4f35b608490602086519162461bcd60e51b8352820152603d60248201527f4552433732313a20617070726f76652063616c6c6572206973206e6f7420746f60448201527f6b656e206f776e6572206f7220617070726f76656420666f7220616c6c0000006064820152fd5b90508652600560205284862033875260205260ff858720541638610eee565b855162461bcd60e51b8152602081840152602160248201527f4552433732313a20617070726f76616c20746f2063757272656e74206f776e656044820152603960f91b6064820152608490fd5b82843461055d57602036600319011261055d57506109da60209235611780565b505034610184578160031936011261018457805190828054611056816112af565b808552916001918083169081156102365750600114611081575050506101d5826101e794038361123a565b80809650527f290decd9548b62a8d60345a988386fc84ba6bc95484008f6362f93160ef3e5635b8286106110c5575050506101d58260206101e795820101946101c3565b805460208787018101919091529095019481016110a8565b84913461029d57602036600319011261029d573563ffffffff60e01b811680910361029d57602092506380ac58cd60e01b8114908115611137575b8115611126575b5015158152f35b6301ffc9a760e01b1490508361111f565b635b5e139f60e01b81149150611118565b918091926000905b828210611168575011611161575050565b6000910152565b91508060209183015181860152018291611150565b9060209161119681518092818552858086019101611148565b601f01601f1916010190565b600435906001600160a01b03821682036111b857565b600080fd5b602435906001600160a01b03821682036111b857565b60609060031901126111b8576001600160a01b039060043582811681036111b8579160243590811681036111b8579060443590565b6020810190811067ffffffffffffffff82111761122457604052565b634e487b7160e01b600052604160045260246000fd5b90601f8019910116810190811067ffffffffffffffff82111761122457604052565b67ffffffffffffffff811161122457601f01601f191660200190565b9291926112848261125c565b91611292604051938461123a565b8294818452818301116111b8578281602093846000960137010152565b90600182811c921680156112df575b60208310146112c957565b634e487b7160e01b600052602260045260246000fd5b91607f16916112be565b60009080825260209060068252604092838120338252835260ff8482205416156113135750505050565b83519167ffffffffffffffff9033606085018381118682101761160b578752602a855285850191873684378551156115f757603083538551916001928310156115e3576078602188015360295b838111611579575061153757908751936080850190858210908211176115235788526042845286840194606036873784511561150f5760308653845182101561150f5790607860218601536041915b8183116114a15750505061145f5761145b93869361143f936114306048946114079a519a8b957f416363657373436f6e74726f6c3a206163636f756e74200000000000000000008c8801525180926037880190611148565b8401917001034b99036b4b9b9b4b733903937b6329607d1b603784015251809386840190611148565b0103602881018752018561123a565b5192839262461bcd60e51b84526004840152602483019061117d565b0390fd5b60648587519062461bcd60e51b825280600483015260248201527f537472696e67733a20686578206c656e67746820696e73756666696369656e746044820152fd5b909192600f811660108110156114fb576f181899199a1a9b1b9c1cb0b131b232b360811b901a6114d18588611d98565b5360041c9280156114e7576000190191906113af565b634e487b7160e01b82526011600452602482fd5b634e487b7160e01b83526032600452602483fd5b634e487b7160e01b81526032600452602490fd5b634e487b7160e01b86526041600452602486fd5b60648789519062461bcd60e51b825280600483015260248201527f537472696e67733a20686578206c656e67746820696e73756666696369656e746044820152fd5b90600f811660108110156115cf576f181899199a1a9b1b9c1cb0b131b232b360811b901a6115a7838a611d98565b5360041c9080156115bb5760001901611360565b634e487b7160e01b87526011600452602487fd5b634e487b7160e01b88526032600452602488fd5b634e487b7160e01b86526032600452602486fd5b634e487b7160e01b85526032600452602485fd5b634e487b7160e01b85526041600452602485fd5b906000918083526006602052604083209160018060a01b03169182845260205260ff60408420541661165057505050565b8083526006602052604083208284526020526040832060ff1981541690557ff6391f5c32d9c69d2a47ea670b442974b53935d1edc7fd64eb21e047a839171b3393604051a4565b6001600160a01b031680156116b757600052600360205260406000205490565b60405162461bcd60e51b815260206004820152602960248201527f4552433732313a2061646472657373207a65726f206973206e6f7420612076616044820152683634b21037bbb732b960b91b6064820152608490fd5b1561171557565b60405162461bcd60e51b815260206004820152601860248201527f4552433732313a20696e76616c696420746f6b656e20494400000000000000006044820152606490fd5b6000908152600260205260409020546001600160a01b031661177d81151561170e565b90565b6000818152600260205260409020546117a3906001600160a01b0316151561170e565b6000908152600460205260409020546001600160a01b031690565b156117c557565b60405162461bcd60e51b815260206004820152602d60248201527f4552433732313a2063616c6c6572206973206e6f7420746f6b656e206f776e6560448201526c1c881bdc88185c1c1c9bdd9959609a1b6064820152608490fd5b60809060208152603260208201527f4552433732313a207472616e7366657220746f206e6f6e20455243373231526560408201527131b2b4bb32b91034b6b83632b6b2b73a32b960711b60608201520190565b1561187a57565b60405162461bcd60e51b81528061145b60048201611820565b906001600160a01b0380806118a78461175a565b169316918383149384156118da575b5083156118c4575b50505090565b6118d091929350611780565b16143880806118be565b909350600052600560205260406000208260005260205260ff6040600020541692386118b6565b1561190857565b60405162461bcd60e51b815260206004820152602560248201527f4552433732313a207472616e736665722066726f6d20696e636f72726563742060448201526437bbb732b960d91b6064820152608490fd5b61197f916119688461175a565b6001600160a01b0393848416939185168414611901565b838216938415611b5357839182611a9a575090506009549085600052600a60205281604060002055600160401b821015611224576119e5926119cc87610870856001899701600955611d4b565b828603611a67575b506119de8661175a565b1614611901565b7fddf252ad1be2c89b69c2b068fc378daa952ba7f163c4a11628f55a4df523b3ef60008481526004602052604081206bffffffffffffffffffffffff60a01b90818154169055838252600360205260408220600019815401905584825260408220600181540190558582526002602052846040832091825416179055604051a4565b611a7090611697565b604060008781526007602052818120838252602052888282205588815260086020522055386119d4565b858303611aac575b506119e5926119cc565b611ab7919250611697565b9060018210611b3d576119e5928492600019016000908882526020906008825260409182842054828103611b06575b508a84528383812055868452600781528284209184525281205592611aa2565b8785526007825283852083865282528385205488865260078352848620828752835280858720558552600882528385205538611ae6565b634e487b7160e01b600052601160045260246000fd5b60405162461bcd60e51b8152602060048201526024808201527f4552433732313a207472616e7366657220746f20746865207a65726f206164646044820152637265737360e01b6064820152608490fd5b9192600092909190803b15611cb657611bf2946040518092630a85bd0160e11b9485835233600484015287602484015260448301526080606483015281878160209a8b96608483019061117d565b03926001600160a01b03165af1849181611c76575b50611c65575050503d600014611c5d573d611c218161125c565b90611c2f604051928361123a565b81528091833d92013e5b80519182611c5a5760405162461bcd60e51b81528061145b60048201611820565b01fd5b506060611c39565b6001600160e01b0319161492509050565b9091508581813d8311611caf575b611c8e818361123a565b810103126106b757516001600160e01b0319811681036106b7579038611c07565b503d611c84565b5050915050600190565b9293600093909291803b15611d4057948491611d1a9660405180948193630a85bd0160e11b9788845233600485015260018060a01b0380921660248501526044840152608060648401528260209b8c97608483019061117d565b0393165af1849181611c765750611c65575050503d600014611c5d573d611c218161125c565b505050915050600190565b600954811015611d825760096000527f6e1540171b6c0c960b71a7020d9f60077f6af931a8bbf590da0223dacf75c7af0190600090565b634e487b7160e01b600052603260045260246000fd5b908151811015611d82570160200190565b15611db057565b60405162461bcd60e51b815260206004820152601c60248201527f4552433732313a20746f6b656e20616c7265616479206d696e746564000000006044820152606490fdfedf6966c971051c3d54ec59162606531493a51404a002842f56009d7e5cf4a8c7a264697066735822122039d7f6d88fe6c5221544f6f422686a2410627c84b9949c23b0ccada02976096a64736f6c634300080f0033",
  "linkReferences": {},
  "deployedLinkReferences": {}
}